{
	"contracts/4_auctions.sol": {
		"Auction": {
			"abi": [
				{
					"inputs": [
						{
							"internalType": "string",
							"name": "_name",
							"type": "string"
						},
						{
							"internalType": "string",
							"name": "_description",
							"type": "string"
						}
					],
					"name": "createItem",
					"outputs": [],
					"stateMutability": "nonpayable",
					"type": "function"
				},
				{
					"inputs": [],
					"name": "getAllInfo",
					"outputs": [
						{
							"components": [
								{
									"internalType": "string",
									"name": "name",
									"type": "string"
								},
								{
									"internalType": "string",
									"name": "description",
									"type": "string"
								},
								{
									"internalType": "address payable",
									"name": "highestBidder",
									"type": "address"
								},
								{
									"internalType": "uint256",
									"name": "highestBid",
									"type": "uint256"
								}
							],
							"internalType": "struct Auction.Item[]",
							"name": "",
							"type": "tuple[]"
						}
					],
					"stateMutability": "view",
					"type": "function"
				},
				{
					"inputs": [
						{
							"internalType": "uint256",
							"name": "_itemId",
							"type": "uint256"
						}
					],
					"name": "getWinningBid",
					"outputs": [
						{
							"internalType": "address",
							"name": "",
							"type": "address"
						},
						{
							"internalType": "uint256",
							"name": "",
							"type": "uint256"
						}
					],
					"stateMutability": "view",
					"type": "function"
				},
				{
					"inputs": [],
					"name": "itemCount",
					"outputs": [
						{
							"internalType": "uint256",
							"name": "",
							"type": "uint256"
						}
					],
					"stateMutability": "view",
					"type": "function"
				},
				{
					"inputs": [
						{
							"internalType": "uint256",
							"name": "",
							"type": "uint256"
						}
					],
					"name": "items",
					"outputs": [
						{
							"internalType": "string",
							"name": "name",
							"type": "string"
						},
						{
							"internalType": "string",
							"name": "description",
							"type": "string"
						},
						{
							"internalType": "address payable",
							"name": "highestBidder",
							"type": "address"
						},
						{
							"internalType": "uint256",
							"name": "highestBid",
							"type": "uint256"
						}
					],
					"stateMutability": "view",
					"type": "function"
				},
				{
					"inputs": [
						{
							"internalType": "uint256",
							"name": "_itemId",
							"type": "uint256"
						},
						{
							"internalType": "uint256",
							"name": "_bidAmount",
							"type": "uint256"
						}
					],
					"name": "placeBid",
					"outputs": [],
					"stateMutability": "payable",
					"type": "function"
				}
			],
			"devdoc": {
				"kind": "dev",
				"methods": {},
				"version": 1
			},
			"evm": {
				"assembly": "    /* \"contracts/4_auctions.sol\":70:1599  contract Auction {... */\n  mstore(0x40, 0x80)\n  callvalue\n  dup1\n  iszero\n  tag_1\n  jumpi\n  0x00\n  dup1\n  revert\ntag_1:\n  pop\n  dataSize(sub_0)\n  dup1\n  dataOffset(sub_0)\n  0x00\n  codecopy\n  0x00\n  return\nstop\n\nsub_0: assembly {\n        /* \"contracts/4_auctions.sol\":70:1599  contract Auction {... */\n      mstore(0x40, 0x80)\n      jumpi(tag_1, lt(calldatasize, 0x04))\n      shr(0xe0, calldataload(0x00))\n      dup1\n      0x57c90de5\n      eq\n      tag_2\n      jumpi\n      dup1\n      0x6891939d\n      eq\n      tag_3\n      jumpi\n      dup1\n      0x6bfb0d01\n      eq\n      tag_4\n      jumpi\n      dup1\n      0xb18e15bd\n      eq\n      tag_5\n      jumpi\n      dup1\n      0xbfb231d2\n      eq\n      tag_6\n      jumpi\n      dup1\n      0xe03fd74c\n      eq\n      tag_7\n      jumpi\n    tag_1:\n      0x00\n      dup1\n      revert\n        /* \"contracts/4_auctions.sol\":504:1091  function placeBid(uint _itemId, uint _bidAmount) public payable {... */\n    tag_2:\n      tag_8\n      0x04\n      dup1\n      calldatasize\n      sub\n      dup2\n      add\n      swap1\n      tag_9\n      swap2\n      swap1\n      tag_10\n      jump\t// in\n    tag_9:\n      tag_11\n      jump\t// in\n    tag_8:\n      stop\n        /* \"contracts/4_auctions.sol\":1101:1337  function getWinningBid(uint _itemId) public view returns (address, uint) {... */\n    tag_3:\n      callvalue\n      dup1\n      iszero\n      tag_12\n      jumpi\n      0x00\n      dup1\n      revert\n    tag_12:\n      pop\n      tag_13\n      0x04\n      dup1\n      calldatasize\n      sub\n      dup2\n      add\n      swap1\n      tag_14\n      swap2\n      swap1\n      tag_15\n      jump\t// in\n    tag_14:\n      tag_16\n      jump\t// in\n    tag_13:\n      mload(0x40)\n      tag_17\n      swap3\n      swap2\n      swap1\n      tag_18\n      jump\t// in\n    tag_17:\n      mload(0x40)\n      dup1\n      swap2\n      sub\n      swap1\n      return\n        /* \"contracts/4_auctions.sol\":280:301  uint public itemCount */\n    tag_4:\n      callvalue\n      dup1\n      iszero\n      tag_19\n      jumpi\n      0x00\n      dup1\n      revert\n    tag_19:\n      pop\n      tag_20\n      tag_21\n      jump\t// in\n    tag_20:\n      mload(0x40)\n      tag_22\n      swap2\n      swap1\n      tag_23\n      jump\t// in\n    tag_22:\n      mload(0x40)\n      dup1\n      swap2\n      sub\n      swap1\n      return\n        /* \"contracts/4_auctions.sol\":1343:1597  function getAllInfo() public  view returns(Item[] memory){... */\n    tag_5:\n      callvalue\n      dup1\n      iszero\n      tag_24\n      jumpi\n      0x00\n      dup1\n      revert\n    tag_24:\n      pop\n      tag_25\n      tag_26\n      jump\t// in\n    tag_25:\n      mload(0x40)\n      tag_27\n      swap2\n      swap1\n      tag_28\n      jump\t// in\n    tag_27:\n      mload(0x40)\n      dup1\n      swap2\n      sub\n      swap1\n      return\n        /* \"contracts/4_auctions.sol\":240:274  mapping(uint => Item) public items */\n    tag_6:\n      callvalue\n      dup1\n      iszero\n      tag_29\n      jumpi\n      0x00\n      dup1\n      revert\n    tag_29:\n      pop\n      tag_30\n      0x04\n      dup1\n      calldatasize\n      sub\n      dup2\n      add\n      swap1\n      tag_31\n      swap2\n      swap1\n      tag_15\n      jump\t// in\n    tag_31:\n      tag_32\n      jump\t// in\n    tag_30:\n      mload(0x40)\n      tag_33\n      swap5\n      swap4\n      swap3\n      swap2\n      swap1\n      tag_34\n      jump\t// in\n    tag_33:\n      mload(0x40)\n      dup1\n      swap2\n      sub\n      swap1\n      return\n        /* \"contracts/4_auctions.sol\":312:494  function createItem(string memory _name, string memory _description) public {... */\n    tag_7:\n      callvalue\n      dup1\n      iszero\n      tag_35\n      jumpi\n      0x00\n      dup1\n      revert\n    tag_35:\n      pop\n      tag_36\n      0x04\n      dup1\n      calldatasize\n      sub\n      dup2\n      add\n      swap1\n      tag_37\n      swap2\n      swap1\n      tag_38\n      jump\t// in\n    tag_37:\n      tag_39\n      jump\t// in\n    tag_36:\n      stop\n        /* \"contracts/4_auctions.sol\":504:1091  function placeBid(uint _itemId, uint _bidAmount) public payable {... */\n    tag_11:\n        /* \"contracts/4_auctions.sol\":596:597  0 */\n      0x00\n        /* \"contracts/4_auctions.sol\":586:593  _itemId */\n      dup3\n        /* \"contracts/4_auctions.sol\":586:597  _itemId > 0 */\n      gt\n        /* \"contracts/4_auctions.sol\":586:621  _itemId > 0 && _itemId <= itemCount */\n      dup1\n      iszero\n      tag_41\n      jumpi\n      pop\n        /* \"contracts/4_auctions.sol\":612:621  itemCount */\n      sload(0x01)\n        /* \"contracts/4_auctions.sol\":601:608  _itemId */\n      dup3\n        /* \"contracts/4_auctions.sol\":601:621  _itemId <= itemCount */\n      gt\n      iszero\n        /* \"contracts/4_auctions.sol\":586:621  _itemId > 0 && _itemId <= itemCount */\n    tag_41:\n        /* \"contracts/4_auctions.sol\":578:641  require(_itemId > 0 && _itemId <= itemCount, \"Invalid item ID\") */\n      tag_42\n      jumpi\n      mload(0x40)\n      0x08c379a000000000000000000000000000000000000000000000000000000000\n      dup2\n      mstore\n      0x04\n      add\n      tag_43\n      swap1\n      tag_44\n      jump\t// in\n    tag_43:\n      mload(0x40)\n      dup1\n      swap2\n      sub\n      swap1\n      revert\n    tag_42:\n        /* \"contracts/4_auctions.sol\":672:677  items */\n      0x00\n        /* \"contracts/4_auctions.sol\":672:686  items[_itemId] */\n      dup1\n        /* \"contracts/4_auctions.sol\":678:685  _itemId */\n      dup4\n        /* \"contracts/4_auctions.sol\":672:686  items[_itemId] */\n      dup2\n      mstore\n      0x20\n      add\n      swap1\n      dup2\n      mstore\n      0x20\n      add\n      0x00\n      keccak256\n        /* \"contracts/4_auctions.sol\":672:697  items[_itemId].highestBid */\n      0x03\n      add\n      sload\n        /* \"contracts/4_auctions.sol\":659:669  _bidAmount */\n      dup2\n        /* \"contracts/4_auctions.sol\":659:697  _bidAmount > items[_itemId].highestBid */\n      gt\n        /* \"contracts/4_auctions.sol\":651:752  require(_bidAmount > items[_itemId].highestBid, \"Bid amount must be higher than current highest bid\") */\n      tag_45\n      jumpi\n      mload(0x40)\n      0x08c379a000000000000000000000000000000000000000000000000000000000\n      dup2\n      mstore\n      0x04\n      add\n      tag_46\n      swap1\n      tag_47\n      jump\t// in\n    tag_46:\n      mload(0x40)\n      dup1\n      swap2\n      sub\n      swap1\n      revert\n    tag_45:\n        /* \"contracts/4_auctions.sol\":815:816  0 */\n      0x00\n        /* \"contracts/4_auctions.sol\":775:817  items[_itemId].highestBidder != address(0) */\n      0xffffffffffffffffffffffffffffffffffffffff\n      and\n        /* \"contracts/4_auctions.sol\":775:780  items */\n      0x00\n        /* \"contracts/4_auctions.sol\":775:789  items[_itemId] */\n      dup1\n        /* \"contracts/4_auctions.sol\":781:788  _itemId */\n      dup5\n        /* \"contracts/4_auctions.sol\":775:789  items[_itemId] */\n      dup2\n      mstore\n      0x20\n      add\n      swap1\n      dup2\n      mstore\n      0x20\n      add\n      0x00\n      keccak256\n        /* \"contracts/4_auctions.sol\":775:803  items[_itemId].highestBidder */\n      0x02\n      add\n      0x00\n      swap1\n      sload\n      swap1\n      0x0100\n      exp\n      swap1\n      div\n      0xffffffffffffffffffffffffffffffffffffffff\n      and\n        /* \"contracts/4_auctions.sol\":775:817  items[_itemId].highestBidder != address(0) */\n      0xffffffffffffffffffffffffffffffffffffffff\n      and\n      eq\n        /* \"contracts/4_auctions.sol\":771:968  if (items[_itemId].highestBidder != address(0)) {... */\n      tag_48\n      jumpi\n        /* \"contracts/4_auctions.sol\":893:898  items */\n      0x00\n        /* \"contracts/4_auctions.sol\":893:907  items[_itemId] */\n      dup1\n        /* \"contracts/4_auctions.sol\":899:906  _itemId */\n      dup4\n        /* \"contracts/4_auctions.sol\":893:907  items[_itemId] */\n      dup2\n      mstore\n      0x20\n      add\n      swap1\n      dup2\n      mstore\n      0x20\n      add\n      0x00\n      keccak256\n        /* \"contracts/4_auctions.sol\":893:921  items[_itemId].highestBidder */\n      0x02\n      add\n      0x00\n      swap1\n      sload\n      swap1\n      0x0100\n      exp\n      swap1\n      div\n      0xffffffffffffffffffffffffffffffffffffffff\n      and\n        /* \"contracts/4_auctions.sol\":893:930  items[_itemId].highestBidder.transfer */\n      0xffffffffffffffffffffffffffffffffffffffff\n      and\n        /* \"contracts/4_auctions.sol\":893:957  items[_itemId].highestBidder.transfer(items[_itemId].highestBid) */\n      0x08fc\n        /* \"contracts/4_auctions.sol\":931:936  items */\n      0x00\n        /* \"contracts/4_auctions.sol\":931:945  items[_itemId] */\n      dup1\n        /* \"contracts/4_auctions.sol\":937:944  _itemId */\n      dup6\n        /* \"contracts/4_auctions.sol\":931:945  items[_itemId] */\n      dup2\n      mstore\n      0x20\n      add\n      swap1\n      dup2\n      mstore\n      0x20\n      add\n      0x00\n      keccak256\n        /* \"contracts/4_auctions.sol\":931:956  items[_itemId].highestBid */\n      0x03\n      add\n      sload\n        /* \"contracts/4_auctions.sol\":893:957  items[_itemId].highestBidder.transfer(items[_itemId].highestBid) */\n      swap1\n      dup2\n      iszero\n      mul\n      swap1\n      mload(0x40)\n      0x00\n      mload(0x40)\n      dup1\n      dup4\n      sub\n      dup2\n      dup6\n      dup9\n      dup9\n      call\n      swap4\n      pop\n      pop\n      pop\n      pop\n      iszero\n      dup1\n      iszero\n      tag_50\n      jumpi\n      returndatasize\n      0x00\n      dup1\n      returndatacopy\n      revert(0x00, returndatasize)\n    tag_50:\n      pop\n        /* \"contracts/4_auctions.sol\":771:968  if (items[_itemId].highestBidder != address(0)) {... */\n    tag_48:\n        /* \"contracts/4_auctions.sol\":1025:1035  msg.sender */\n      caller\n        /* \"contracts/4_auctions.sol\":986:991  items */\n      0x00\n        /* \"contracts/4_auctions.sol\":986:1000  items[_itemId] */\n      dup1\n        /* \"contracts/4_auctions.sol\":992:999  _itemId */\n      dup5\n        /* \"contracts/4_auctions.sol\":986:1000  items[_itemId] */\n      dup2\n      mstore\n      0x20\n      add\n      swap1\n      dup2\n      mstore\n      0x20\n      add\n      0x00\n      keccak256\n        /* \"contracts/4_auctions.sol\":986:1014  items[_itemId].highestBidder */\n      0x02\n      add\n      0x00\n        /* \"contracts/4_auctions.sol\":986:1036  items[_itemId].highestBidder = payable(msg.sender) */\n      0x0100\n      exp\n      dup2\n      sload\n      dup2\n      0xffffffffffffffffffffffffffffffffffffffff\n      mul\n      not\n      and\n      swap1\n      dup4\n      0xffffffffffffffffffffffffffffffffffffffff\n      and\n      mul\n      or\n      swap1\n      sstore\n      pop\n        /* \"contracts/4_auctions.sol\":1074:1084  _bidAmount */\n      dup1\n        /* \"contracts/4_auctions.sol\":1046:1051  items */\n      0x00\n        /* \"contracts/4_auctions.sol\":1046:1060  items[_itemId] */\n      dup1\n        /* \"contracts/4_auctions.sol\":1052:1059  _itemId */\n      dup5\n        /* \"contracts/4_auctions.sol\":1046:1060  items[_itemId] */\n      dup2\n      mstore\n      0x20\n      add\n      swap1\n      dup2\n      mstore\n      0x20\n      add\n      0x00\n      keccak256\n        /* \"contracts/4_auctions.sol\":1046:1071  items[_itemId].highestBid */\n      0x03\n      add\n        /* \"contracts/4_auctions.sol\":1046:1084  items[_itemId].highestBid = _bidAmount */\n      dup2\n      swap1\n      sstore\n      pop\n        /* \"contracts/4_auctions.sol\":504:1091  function placeBid(uint _itemId, uint _bidAmount) public payable {... */\n      pop\n      pop\n      jump\t// out\n        /* \"contracts/4_auctions.sol\":1101:1337  function getWinningBid(uint _itemId) public view returns (address, uint) {... */\n    tag_16:\n        /* \"contracts/4_auctions.sol\":1159:1166  address */\n      0x00\n        /* \"contracts/4_auctions.sol\":1168:1172  uint */\n      dup1\n        /* \"contracts/4_auctions.sol\":1202:1203  0 */\n      0x00\n        /* \"contracts/4_auctions.sol\":1192:1199  _itemId */\n      dup4\n        /* \"contracts/4_auctions.sol\":1192:1203  _itemId > 0 */\n      gt\n        /* \"contracts/4_auctions.sol\":1192:1227  _itemId > 0 && _itemId <= itemCount */\n      dup1\n      iszero\n      tag_52\n      jumpi\n      pop\n        /* \"contracts/4_auctions.sol\":1218:1227  itemCount */\n      sload(0x01)\n        /* \"contracts/4_auctions.sol\":1207:1214  _itemId */\n      dup4\n        /* \"contracts/4_auctions.sol\":1207:1227  _itemId <= itemCount */\n      gt\n      iszero\n        /* \"contracts/4_auctions.sol\":1192:1227  _itemId > 0 && _itemId <= itemCount */\n    tag_52:\n        /* \"contracts/4_auctions.sol\":1184:1247  require(_itemId > 0 && _itemId <= itemCount, \"Invalid item ID\") */\n      tag_53\n      jumpi\n      mload(0x40)\n      0x08c379a000000000000000000000000000000000000000000000000000000000\n      dup2\n      mstore\n      0x04\n      add\n      tag_54\n      swap1\n      tag_44\n      jump\t// in\n    tag_54:\n      mload(0x40)\n      dup1\n      swap2\n      sub\n      swap1\n      revert\n    tag_53:\n        /* \"contracts/4_auctions.sol\":1274:1279  items */\n      0x00\n        /* \"contracts/4_auctions.sol\":1274:1288  items[_itemId] */\n      dup1\n        /* \"contracts/4_auctions.sol\":1280:1287  _itemId */\n      dup5\n        /* \"contracts/4_auctions.sol\":1274:1288  items[_itemId] */\n      dup2\n      mstore\n      0x20\n      add\n      swap1\n      dup2\n      mstore\n      0x20\n      add\n      0x00\n      keccak256\n        /* \"contracts/4_auctions.sol\":1274:1302  items[_itemId].highestBidder */\n      0x02\n      add\n      0x00\n      swap1\n      sload\n      swap1\n      0x0100\n      exp\n      swap1\n      div\n      0xffffffffffffffffffffffffffffffffffffffff\n      and\n        /* \"contracts/4_auctions.sol\":1304:1309  items */\n      0x00\n        /* \"contracts/4_auctions.sol\":1304:1318  items[_itemId] */\n      dup1\n        /* \"contracts/4_auctions.sol\":1310:1317  _itemId */\n      dup6\n        /* \"contracts/4_auctions.sol\":1304:1318  items[_itemId] */\n      dup2\n      mstore\n      0x20\n      add\n      swap1\n      dup2\n      mstore\n      0x20\n      add\n      0x00\n      keccak256\n        /* \"contracts/4_auctions.sol\":1304:1329  items[_itemId].highestBid */\n      0x03\n      add\n      sload\n        /* \"contracts/4_auctions.sol\":1266:1330  return (items[_itemId].highestBidder, items[_itemId].highestBid) */\n      swap2\n      pop\n      swap2\n      pop\n        /* \"contracts/4_auctions.sol\":1101:1337  function getWinningBid(uint _itemId) public view returns (address, uint) {... */\n      swap2\n      pop\n      swap2\n      jump\t// out\n        /* \"contracts/4_auctions.sol\":280:301  uint public itemCount */\n    tag_21:\n      sload(0x01)\n      dup2\n      jump\t// out\n        /* \"contracts/4_auctions.sol\":1343:1597  function getAllInfo() public  view returns(Item[] memory){... */\n    tag_26:\n        /* \"contracts/4_auctions.sol\":1386:1399  Item[] memory */\n      0x60\n        /* \"contracts/4_auctions.sol\":1410:1427  Item[] memory arr */\n      0x00\n        /* \"contracts/4_auctions.sol\":1441:1450  itemCount */\n      sload(0x01)\n        /* \"contracts/4_auctions.sol\":1430:1451  new Item[](itemCount) */\n      0xffffffffffffffff\n      dup2\n      gt\n      iszero\n      tag_56\n      jumpi\n      tag_57\n      tag_58\n      jump\t// in\n    tag_57:\n    tag_56:\n      mload(0x40)\n      swap1\n      dup1\n      dup3\n      mstore\n      dup1\n      0x20\n      mul\n      0x20\n      add\n      dup3\n      add\n      0x40\n      mstore\n      dup1\n      iszero\n      tag_59\n      jumpi\n      dup2\n      0x20\n      add\n    tag_60:\n      tag_61\n      tag_62\n      jump\t// in\n    tag_61:\n      dup2\n      mstore\n      0x20\n      add\n      swap1\n      0x01\n      swap1\n      sub\n      swap1\n      dup2\n      tag_60\n      jumpi\n      swap1\n      pop\n    tag_59:\n      pop\n        /* \"contracts/4_auctions.sol\":1410:1451  Item[] memory arr = new Item[](itemCount) */\n      swap1\n      pop\n        /* \"contracts/4_auctions.sol\":1465:1471  uint i */\n      0x00\n        /* \"contracts/4_auctions.sol\":1461:1571  for(uint i=0;i<itemCount;i++){... */\n    tag_63:\n        /* \"contracts/4_auctions.sol\":1476:1485  itemCount */\n      sload(0x01)\n        /* \"contracts/4_auctions.sol\":1474:1475  i */\n      dup2\n        /* \"contracts/4_auctions.sol\":1474:1485  i<itemCount */\n      lt\n        /* \"contracts/4_auctions.sol\":1461:1571  for(uint i=0;i<itemCount;i++){... */\n      iszero\n      tag_64\n      jumpi\n        /* \"contracts/4_auctions.sol\":1504:1521  Item memory _item */\n      0x00\n        /* \"contracts/4_auctions.sol\":1524:1529  items */\n      dup1\n        /* \"contracts/4_auctions.sol\":1524:1532  items[i] */\n      0x00\n        /* \"contracts/4_auctions.sol\":1530:1531  i */\n      dup4\n        /* \"contracts/4_auctions.sol\":1524:1532  items[i] */\n      dup2\n      mstore\n      0x20\n      add\n      swap1\n      dup2\n      mstore\n      0x20\n      add\n      0x00\n      keccak256\n        /* \"contracts/4_auctions.sol\":1504:1532  Item memory _item = items[i] */\n      mload(0x40)\n      dup1\n      0x80\n      add\n      0x40\n      mstore\n      swap1\n      dup2\n      0x00\n      dup3\n      add\n      dup1\n      sload\n      tag_66\n      swap1\n      tag_67\n      jump\t// in\n    tag_66:\n      dup1\n      0x1f\n      add\n      0x20\n      dup1\n      swap2\n      div\n      mul\n      0x20\n      add\n      mload(0x40)\n      swap1\n      dup2\n      add\n      0x40\n      mstore\n      dup1\n      swap3\n      swap2\n      swap1\n      dup2\n      dup2\n      mstore\n      0x20\n      add\n      dup3\n      dup1\n      sload\n      tag_68\n      swap1\n      tag_67\n      jump\t// in\n    tag_68:\n      dup1\n      iszero\n      tag_69\n      jumpi\n      dup1\n      0x1f\n      lt\n      tag_70\n      jumpi\n      0x0100\n      dup1\n      dup4\n      sload\n      div\n      mul\n      dup4\n      mstore\n      swap2\n      0x20\n      add\n      swap2\n      jump(tag_69)\n    tag_70:\n      dup3\n      add\n      swap2\n      swap1\n      0x00\n      mstore\n      keccak256(0x00, 0x20)\n      swap1\n    tag_71:\n      dup2\n      sload\n      dup2\n      mstore\n      swap1\n      0x01\n      add\n      swap1\n      0x20\n      add\n      dup1\n      dup4\n      gt\n      tag_71\n      jumpi\n      dup3\n      swap1\n      sub\n      0x1f\n      and\n      dup3\n      add\n      swap2\n    tag_69:\n      pop\n      pop\n      pop\n      pop\n      pop\n      dup2\n      mstore\n      0x20\n      add\n      0x01\n      dup3\n      add\n      dup1\n      sload\n      tag_72\n      swap1\n      tag_67\n      jump\t// in\n    tag_72:\n      dup1\n      0x1f\n      add\n      0x20\n      dup1\n      swap2\n      div\n      mul\n      0x20\n      add\n      mload(0x40)\n      swap1\n      dup2\n      add\n      0x40\n      mstore\n      dup1\n      swap3\n      swap2\n      swap1\n      dup2\n      dup2\n      mstore\n      0x20\n      add\n      dup3\n      dup1\n      sload\n      tag_73\n      swap1\n      tag_67\n      jump\t// in\n    tag_73:\n      dup1\n      iszero\n      tag_74\n      jumpi\n      dup1\n      0x1f\n      lt\n      tag_75\n      jumpi\n      0x0100\n      dup1\n      dup4\n      sload\n      div\n      mul\n      dup4\n      mstore\n      swap2\n      0x20\n      add\n      swap2\n      jump(tag_74)\n    tag_75:\n      dup3\n      add\n      swap2\n      swap1\n      0x00\n      mstore\n      keccak256(0x00, 0x20)\n      swap1\n    tag_76:\n      dup2\n      sload\n      dup2\n      mstore\n      swap1\n      0x01\n      add\n      swap1\n      0x20\n      add\n      dup1\n      dup4\n      gt\n      tag_76\n      jumpi\n      dup3\n      swap1\n      sub\n      0x1f\n      and\n      dup3\n      add\n      swap2\n    tag_74:\n      pop\n      pop\n      pop\n      pop\n      pop\n      dup2\n      mstore\n      0x20\n      add\n      0x02\n      dup3\n      add\n      0x00\n      swap1\n      sload\n      swap1\n      0x0100\n      exp\n      swap1\n      div\n      0xffffffffffffffffffffffffffffffffffffffff\n      and\n      0xffffffffffffffffffffffffffffffffffffffff\n      and\n      0xffffffffffffffffffffffffffffffffffffffff\n      and\n      dup2\n      mstore\n      0x20\n      add\n      0x03\n      dup3\n      add\n      sload\n      dup2\n      mstore\n      pop\n      pop\n      swap1\n      pop\n        /* \"contracts/4_auctions.sol\":1555:1560  _item */\n      dup1\n        /* \"contracts/4_auctions.sol\":1546:1549  arr */\n      dup4\n        /* \"contracts/4_auctions.sol\":1550:1551  i */\n      dup4\n        /* \"contracts/4_auctions.sol\":1546:1552  arr[i] */\n      dup2\n      mload\n      dup2\n      lt\n      tag_77\n      jumpi\n      tag_78\n      tag_79\n      jump\t// in\n    tag_78:\n    tag_77:\n      0x20\n      mul\n      0x20\n      add\n      add\n        /* \"contracts/4_auctions.sol\":1546:1560  arr[i] = _item */\n      dup2\n      swap1\n      mstore\n      pop\n        /* \"contracts/4_auctions.sol\":1490:1571  {... */\n      pop\n        /* \"contracts/4_auctions.sol\":1486:1489  i++ */\n      dup1\n      dup1\n      0x01\n      add\n      swap2\n      pop\n      pop\n        /* \"contracts/4_auctions.sol\":1461:1571  for(uint i=0;i<itemCount;i++){... */\n      jump(tag_63)\n    tag_64:\n      pop\n        /* \"contracts/4_auctions.sol\":1587:1590  arr */\n      dup1\n        /* \"contracts/4_auctions.sol\":1580:1590  return arr */\n      swap2\n      pop\n      pop\n        /* \"contracts/4_auctions.sol\":1343:1597  function getAllInfo() public  view returns(Item[] memory){... */\n      swap1\n      jump\t// out\n        /* \"contracts/4_auctions.sol\":240:274  mapping(uint => Item) public items */\n    tag_32:\n      mstore(0x20, 0x00)\n      dup1\n      0x00\n      mstore\n      keccak256(0x00, 0x40)\n      0x00\n      swap2\n      pop\n      swap1\n      pop\n      dup1\n      0x00\n      add\n      dup1\n      sload\n      tag_80\n      swap1\n      tag_67\n      jump\t// in\n    tag_80:\n      dup1\n      0x1f\n      add\n      0x20\n      dup1\n      swap2\n      div\n      mul\n      0x20\n      add\n      mload(0x40)\n      swap1\n      dup2\n      add\n      0x40\n      mstore\n      dup1\n      swap3\n      swap2\n      swap1\n      dup2\n      dup2\n      mstore\n      0x20\n      add\n      dup3\n      dup1\n      sload\n      tag_81\n      swap1\n      tag_67\n      jump\t// in\n    tag_81:\n      dup1\n      iszero\n      tag_82\n      jumpi\n      dup1\n      0x1f\n      lt\n      tag_83\n      jumpi\n      0x0100\n      dup1\n      dup4\n      sload\n      div\n      mul\n      dup4\n      mstore\n      swap2\n      0x20\n      add\n      swap2\n      jump(tag_82)\n    tag_83:\n      dup3\n      add\n      swap2\n      swap1\n      0x00\n      mstore\n      keccak256(0x00, 0x20)\n      swap1\n    tag_84:\n      dup2\n      sload\n      dup2\n      mstore\n      swap1\n      0x01\n      add\n      swap1\n      0x20\n      add\n      dup1\n      dup4\n      gt\n      tag_84\n      jumpi\n      dup3\n      swap1\n      sub\n      0x1f\n      and\n      dup3\n      add\n      swap2\n    tag_82:\n      pop\n      pop\n      pop\n      pop\n      pop\n      swap1\n      dup1\n      0x01\n      add\n      dup1\n      sload\n      tag_85\n      swap1\n      tag_67\n      jump\t// in\n    tag_85:\n      dup1\n      0x1f\n      add\n      0x20\n      dup1\n      swap2\n      div\n      mul\n      0x20\n      add\n      mload(0x40)\n      swap1\n      dup2\n      add\n      0x40\n      mstore\n      dup1\n      swap3\n      swap2\n      swap1\n      dup2\n      dup2\n      mstore\n      0x20\n      add\n      dup3\n      dup1\n      sload\n      tag_86\n      swap1\n      tag_67\n      jump\t// in\n    tag_86:\n      dup1\n      iszero\n      tag_87\n      jumpi\n      dup1\n      0x1f\n      lt\n      tag_88\n      jumpi\n      0x0100\n      dup1\n      dup4\n      sload\n      div\n      mul\n      dup4\n      mstore\n      swap2\n      0x20\n      add\n      swap2\n      jump(tag_87)\n    tag_88:\n      dup3\n      add\n      swap2\n      swap1\n      0x00\n      mstore\n      keccak256(0x00, 0x20)\n      swap1\n    tag_89:\n      dup2\n      sload\n      dup2\n      mstore\n      swap1\n      0x01\n      add\n      swap1\n      0x20\n      add\n      dup1\n      dup4\n      gt\n      tag_89\n      jumpi\n      dup3\n      swap1\n      sub\n      0x1f\n      and\n      dup3\n      add\n      swap2\n    tag_87:\n      pop\n      pop\n      pop\n      pop\n      pop\n      swap1\n      dup1\n      0x02\n      add\n      0x00\n      swap1\n      sload\n      swap1\n      0x0100\n      exp\n      swap1\n      div\n      0xffffffffffffffffffffffffffffffffffffffff\n      and\n      swap1\n      dup1\n      0x03\n      add\n      sload\n      swap1\n      pop\n      dup5\n      jump\t// out\n        /* \"contracts/4_auctions.sol\":312:494  function createItem(string memory _name, string memory _description) public {... */\n    tag_39:\n        /* \"contracts/4_auctions.sol\":398:407  itemCount */\n      0x01\n      0x00\n        /* \"contracts/4_auctions.sol\":398:409  itemCount++ */\n      dup2\n      sload\n      dup1\n      swap3\n      swap2\n      swap1\n      tag_91\n      swap1\n      tag_92\n      jump\t// in\n    tag_91:\n      swap2\n      swap1\n      pop\n      sstore\n      pop\n        /* \"contracts/4_auctions.sol\":438:487  Item(_name, _description, payable(msg.sender), 0) */\n      mload(0x40)\n      dup1\n      0x80\n      add\n      0x40\n      mstore\n      dup1\n        /* \"contracts/4_auctions.sol\":443:448  _name */\n      dup4\n        /* \"contracts/4_auctions.sol\":438:487  Item(_name, _description, payable(msg.sender), 0) */\n      dup2\n      mstore\n      0x20\n      add\n        /* \"contracts/4_auctions.sol\":450:462  _description */\n      dup3\n        /* \"contracts/4_auctions.sol\":438:487  Item(_name, _description, payable(msg.sender), 0) */\n      dup2\n      mstore\n      0x20\n      add\n        /* \"contracts/4_auctions.sol\":472:482  msg.sender */\n      caller\n        /* \"contracts/4_auctions.sol\":438:487  Item(_name, _description, payable(msg.sender), 0) */\n      0xffffffffffffffffffffffffffffffffffffffff\n      and\n      dup2\n      mstore\n      0x20\n      add\n        /* \"contracts/4_auctions.sol\":485:486  0 */\n      0x00\n        /* \"contracts/4_auctions.sol\":438:487  Item(_name, _description, payable(msg.sender), 0) */\n      dup2\n      mstore\n      pop\n        /* \"contracts/4_auctions.sol\":419:424  items */\n      0x00\n        /* \"contracts/4_auctions.sol\":419:435  items[itemCount] */\n      dup1\n        /* \"contracts/4_auctions.sol\":425:434  itemCount */\n      sload(0x01)\n        /* \"contracts/4_auctions.sol\":419:435  items[itemCount] */\n      dup2\n      mstore\n      0x20\n      add\n      swap1\n      dup2\n      mstore\n      0x20\n      add\n      0x00\n      keccak256\n        /* \"contracts/4_auctions.sol\":419:487  items[itemCount] = Item(_name, _description, payable(msg.sender), 0) */\n      0x00\n      dup3\n      add\n      mload\n      dup2\n      0x00\n      add\n      swap1\n      dup2\n      tag_93\n      swap2\n      swap1\n      tag_94\n      jump\t// in\n    tag_93:\n      pop\n      0x20\n      dup3\n      add\n      mload\n      dup2\n      0x01\n      add\n      swap1\n      dup2\n      tag_95\n      swap2\n      swap1\n      tag_94\n      jump\t// in\n    tag_95:\n      pop\n      0x40\n      dup3\n      add\n      mload\n      dup2\n      0x02\n      add\n      exp(0x0100, 0x00)\n      dup2\n      sload\n      dup2\n      0xffffffffffffffffffffffffffffffffffffffff\n      mul\n      not\n      and\n      swap1\n      dup4\n      0xffffffffffffffffffffffffffffffffffffffff\n      and\n      mul\n      or\n      swap1\n      sstore\n      pop\n      0x60\n      dup3\n      add\n      mload\n      dup2\n      0x03\n      add\n      sstore\n      swap1\n      pop\n      pop\n        /* \"contracts/4_auctions.sol\":312:494  function createItem(string memory _name, string memory _description) public {... */\n      pop\n      pop\n      jump\t// out\n    tag_62:\n      mload(0x40)\n      dup1\n      0x80\n      add\n      0x40\n      mstore\n      dup1\n      0x60\n      dup2\n      mstore\n      0x20\n      add\n      0x60\n      dup2\n      mstore\n      0x20\n      add\n      and(0xffffffffffffffffffffffffffffffffffffffff, 0x00)\n      dup2\n      mstore\n      0x20\n      add\n      0x00\n      dup2\n      mstore\n      pop\n      swap1\n      jump\t// out\n        /* \"#utility.yul\":7:82   */\n    tag_96:\n        /* \"#utility.yul\":40:46   */\n      0x00\n        /* \"#utility.yul\":73:75   */\n      0x40\n        /* \"#utility.yul\":67:76   */\n      mload\n        /* \"#utility.yul\":57:76   */\n      swap1\n      pop\n        /* \"#utility.yul\":7:82   */\n      swap1\n      jump\t// out\n        /* \"#utility.yul\":88:205   */\n    tag_97:\n        /* \"#utility.yul\":197:198   */\n      0x00\n        /* \"#utility.yul\":194:195   */\n      dup1\n        /* \"#utility.yul\":187:199   */\n      revert\n        /* \"#utility.yul\":211:328   */\n    tag_98:\n        /* \"#utility.yul\":320:321   */\n      0x00\n        /* \"#utility.yul\":317:318   */\n      dup1\n        /* \"#utility.yul\":310:322   */\n      revert\n        /* \"#utility.yul\":334:411   */\n    tag_99:\n        /* \"#utility.yul\":371:378   */\n      0x00\n        /* \"#utility.yul\":400:405   */\n      dup2\n        /* \"#utility.yul\":389:405   */\n      swap1\n      pop\n        /* \"#utility.yul\":334:411   */\n      swap2\n      swap1\n      pop\n      jump\t// out\n        /* \"#utility.yul\":417:539   */\n    tag_100:\n        /* \"#utility.yul\":490:514   */\n      tag_159\n        /* \"#utility.yul\":508:513   */\n      dup2\n        /* \"#utility.yul\":490:514   */\n      tag_99\n      jump\t// in\n    tag_159:\n        /* \"#utility.yul\":483:488   */\n      dup2\n        /* \"#utility.yul\":480:515   */\n      eq\n        /* \"#utility.yul\":470:533   */\n      tag_160\n      jumpi\n        /* \"#utility.yul\":529:530   */\n      0x00\n        /* \"#utility.yul\":526:527   */\n      dup1\n        /* \"#utility.yul\":519:531   */\n      revert\n        /* \"#utility.yul\":470:533   */\n    tag_160:\n        /* \"#utility.yul\":417:539   */\n      pop\n      jump\t// out\n        /* \"#utility.yul\":545:684   */\n    tag_101:\n        /* \"#utility.yul\":591:596   */\n      0x00\n        /* \"#utility.yul\":629:635   */\n      dup2\n        /* \"#utility.yul\":616:636   */\n      calldataload\n        /* \"#utility.yul\":607:636   */\n      swap1\n      pop\n        /* \"#utility.yul\":645:678   */\n      tag_162\n        /* \"#utility.yul\":672:677   */\n      dup2\n        /* \"#utility.yul\":645:678   */\n      tag_100\n      jump\t// in\n    tag_162:\n        /* \"#utility.yul\":545:684   */\n      swap3\n      swap2\n      pop\n      pop\n      jump\t// out\n        /* \"#utility.yul\":690:1164   */\n    tag_10:\n        /* \"#utility.yul\":758:764   */\n      0x00\n        /* \"#utility.yul\":766:772   */\n      dup1\n        /* \"#utility.yul\":815:817   */\n      0x40\n        /* \"#utility.yul\":803:812   */\n      dup4\n        /* \"#utility.yul\":794:801   */\n      dup6\n        /* \"#utility.yul\":790:813   */\n      sub\n        /* \"#utility.yul\":786:818   */\n      slt\n        /* \"#utility.yul\":783:902   */\n      iszero\n      tag_164\n      jumpi\n        /* \"#utility.yul\":821:900   */\n      tag_165\n      tag_97\n      jump\t// in\n    tag_165:\n        /* \"#utility.yul\":783:902   */\n    tag_164:\n        /* \"#utility.yul\":941:942   */\n      0x00\n        /* \"#utility.yul\":966:1019   */\n      tag_166\n        /* \"#utility.yul\":1011:1018   */\n      dup6\n        /* \"#utility.yul\":1002:1008   */\n      dup3\n        /* \"#utility.yul\":991:1000   */\n      dup7\n        /* \"#utility.yul\":987:1009   */\n      add\n        /* \"#utility.yul\":966:1019   */\n      tag_101\n      jump\t// in\n    tag_166:\n        /* \"#utility.yul\":956:1019   */\n      swap3\n      pop\n        /* \"#utility.yul\":912:1029   */\n      pop\n        /* \"#utility.yul\":1068:1070   */\n      0x20\n        /* \"#utility.yul\":1094:1147   */\n      tag_167\n        /* \"#utility.yul\":1139:1146   */\n      dup6\n        /* \"#utility.yul\":1130:1136   */\n      dup3\n        /* \"#utility.yul\":1119:1128   */\n      dup7\n        /* \"#utility.yul\":1115:1137   */\n      add\n        /* \"#utility.yul\":1094:1147   */\n      tag_101\n      jump\t// in\n    tag_167:\n        /* \"#utility.yul\":1084:1147   */\n      swap2\n      pop\n        /* \"#utility.yul\":1039:1157   */\n      pop\n        /* \"#utility.yul\":690:1164   */\n      swap3\n      pop\n      swap3\n      swap1\n      pop\n      jump\t// out\n        /* \"#utility.yul\":1170:1499   */\n    tag_15:\n        /* \"#utility.yul\":1229:1235   */\n      0x00\n        /* \"#utility.yul\":1278:1280   */\n      0x20\n        /* \"#utility.yul\":1266:1275   */\n      dup3\n        /* \"#utility.yul\":1257:1264   */\n      dup5\n        /* \"#utility.yul\":1253:1276   */\n      sub\n        /* \"#utility.yul\":1249:1281   */\n      slt\n        /* \"#utility.yul\":1246:1365   */\n      iszero\n      tag_169\n      jumpi\n        /* \"#utility.yul\":1284:1363   */\n      tag_170\n      tag_97\n      jump\t// in\n    tag_170:\n        /* \"#utility.yul\":1246:1365   */\n    tag_169:\n        /* \"#utility.yul\":1404:1405   */\n      0x00\n        /* \"#utility.yul\":1429:1482   */\n      tag_171\n        /* \"#utility.yul\":1474:1481   */\n      dup5\n        /* \"#utility.yul\":1465:1471   */\n      dup3\n        /* \"#utility.yul\":1454:1463   */\n      dup6\n        /* \"#utility.yul\":1450:1472   */\n      add\n        /* \"#utility.yul\":1429:1482   */\n      tag_101\n      jump\t// in\n    tag_171:\n        /* \"#utility.yul\":1419:1482   */\n      swap2\n      pop\n        /* \"#utility.yul\":1375:1492   */\n      pop\n        /* \"#utility.yul\":1170:1499   */\n      swap3\n      swap2\n      pop\n      pop\n      jump\t// out\n        /* \"#utility.yul\":1505:1631   */\n    tag_102:\n        /* \"#utility.yul\":1542:1549   */\n      0x00\n        /* \"#utility.yul\":1582:1624   */\n      0xffffffffffffffffffffffffffffffffffffffff\n        /* \"#utility.yul\":1575:1580   */\n      dup3\n        /* \"#utility.yul\":1571:1625   */\n      and\n        /* \"#utility.yul\":1560:1625   */\n      swap1\n      pop\n        /* \"#utility.yul\":1505:1631   */\n      swap2\n      swap1\n      pop\n      jump\t// out\n        /* \"#utility.yul\":1637:1733   */\n    tag_103:\n        /* \"#utility.yul\":1674:1681   */\n      0x00\n        /* \"#utility.yul\":1703:1727   */\n      tag_174\n        /* \"#utility.yul\":1721:1726   */\n      dup3\n        /* \"#utility.yul\":1703:1727   */\n      tag_102\n      jump\t// in\n    tag_174:\n        /* \"#utility.yul\":1692:1727   */\n      swap1\n      pop\n        /* \"#utility.yul\":1637:1733   */\n      swap2\n      swap1\n      pop\n      jump\t// out\n        /* \"#utility.yul\":1739:1857   */\n    tag_104:\n        /* \"#utility.yul\":1826:1850   */\n      tag_176\n        /* \"#utility.yul\":1844:1849   */\n      dup2\n        /* \"#utility.yul\":1826:1850   */\n      tag_103\n      jump\t// in\n    tag_176:\n        /* \"#utility.yul\":1821:1824   */\n      dup3\n        /* \"#utility.yul\":1814:1851   */\n      mstore\n        /* \"#utility.yul\":1739:1857   */\n      pop\n      pop\n      jump\t// out\n        /* \"#utility.yul\":1863:1981   */\n    tag_105:\n        /* \"#utility.yul\":1950:1974   */\n      tag_178\n        /* \"#utility.yul\":1968:1973   */\n      dup2\n        /* \"#utility.yul\":1950:1974   */\n      tag_99\n      jump\t// in\n    tag_178:\n        /* \"#utility.yul\":1945:1948   */\n      dup3\n        /* \"#utility.yul\":1938:1975   */\n      mstore\n        /* \"#utility.yul\":1863:1981   */\n      pop\n      pop\n      jump\t// out\n        /* \"#utility.yul\":1987:2319   */\n    tag_18:\n        /* \"#utility.yul\":2108:2112   */\n      0x00\n        /* \"#utility.yul\":2146:2148   */\n      0x40\n        /* \"#utility.yul\":2135:2144   */\n      dup3\n        /* \"#utility.yul\":2131:2149   */\n      add\n        /* \"#utility.yul\":2123:2149   */\n      swap1\n      pop\n        /* \"#utility.yul\":2159:2230   */\n      tag_180\n        /* \"#utility.yul\":2227:2228   */\n      0x00\n        /* \"#utility.yul\":2216:2225   */\n      dup4\n        /* \"#utility.yul\":2212:2229   */\n      add\n        /* \"#utility.yul\":2203:2209   */\n      dup6\n        /* \"#utility.yul\":2159:2230   */\n      tag_104\n      jump\t// in\n    tag_180:\n        /* \"#utility.yul\":2240:2312   */\n      tag_181\n        /* \"#utility.yul\":2308:2310   */\n      0x20\n        /* \"#utility.yul\":2297:2306   */\n      dup4\n        /* \"#utility.yul\":2293:2311   */\n      add\n        /* \"#utility.yul\":2284:2290   */\n      dup5\n        /* \"#utility.yul\":2240:2312   */\n      tag_105\n      jump\t// in\n    tag_181:\n        /* \"#utility.yul\":1987:2319   */\n      swap4\n      swap3\n      pop\n      pop\n      pop\n      jump\t// out\n        /* \"#utility.yul\":2325:2547   */\n    tag_23:\n        /* \"#utility.yul\":2418:2422   */\n      0x00\n        /* \"#utility.yul\":2456:2458   */\n      0x20\n        /* \"#utility.yul\":2445:2454   */\n      dup3\n        /* \"#utility.yul\":2441:2459   */\n      add\n        /* \"#utility.yul\":2433:2459   */\n      swap1\n      pop\n        /* \"#utility.yul\":2469:2540   */\n      tag_183\n        /* \"#utility.yul\":2537:2538   */\n      0x00\n        /* \"#utility.yul\":2526:2535   */\n      dup4\n        /* \"#utility.yul\":2522:2539   */\n      add\n        /* \"#utility.yul\":2513:2519   */\n      dup5\n        /* \"#utility.yul\":2469:2540   */\n      tag_105\n      jump\t// in\n    tag_183:\n        /* \"#utility.yul\":2325:2547   */\n      swap3\n      swap2\n      pop\n      pop\n      jump\t// out\n        /* \"#utility.yul\":2553:2687   */\n    tag_106:\n        /* \"#utility.yul\":2640:2646   */\n      0x00\n        /* \"#utility.yul\":2674:2679   */\n      dup2\n        /* \"#utility.yul\":2668:2680   */\n      mload\n        /* \"#utility.yul\":2658:2680   */\n      swap1\n      pop\n        /* \"#utility.yul\":2553:2687   */\n      swap2\n      swap1\n      pop\n      jump\t// out\n        /* \"#utility.yul\":2693:2897   */\n    tag_107:\n        /* \"#utility.yul\":2812:2823   */\n      0x00\n        /* \"#utility.yul\":2846:2852   */\n      dup3\n        /* \"#utility.yul\":2841:2844   */\n      dup3\n        /* \"#utility.yul\":2834:2853   */\n      mstore\n        /* \"#utility.yul\":2886:2890   */\n      0x20\n        /* \"#utility.yul\":2881:2884   */\n      dup3\n        /* \"#utility.yul\":2877:2891   */\n      add\n        /* \"#utility.yul\":2862:2891   */\n      swap1\n      pop\n        /* \"#utility.yul\":2693:2897   */\n      swap3\n      swap2\n      pop\n      pop\n      jump\t// out\n        /* \"#utility.yul\":2903:3055   */\n    tag_108:\n        /* \"#utility.yul\":2990:2994   */\n      0x00\n        /* \"#utility.yul\":3013:3016   */\n      dup2\n        /* \"#utility.yul\":3005:3016   */\n      swap1\n      pop\n        /* \"#utility.yul\":3043:3047   */\n      0x20\n        /* \"#utility.yul\":3038:3041   */\n      dup3\n        /* \"#utility.yul\":3034:3048   */\n      add\n        /* \"#utility.yul\":3026:3048   */\n      swap1\n      pop\n        /* \"#utility.yul\":2903:3055   */\n      swap2\n      swap1\n      pop\n      jump\t// out\n        /* \"#utility.yul\":3061:3160   */\n    tag_109:\n        /* \"#utility.yul\":3113:3119   */\n      0x00\n        /* \"#utility.yul\":3147:3152   */\n      dup2\n        /* \"#utility.yul\":3141:3153   */\n      mload\n        /* \"#utility.yul\":3131:3153   */\n      swap1\n      pop\n        /* \"#utility.yul\":3061:3160   */\n      swap2\n      swap1\n      pop\n      jump\t// out\n        /* \"#utility.yul\":3166:3325   */\n    tag_110:\n        /* \"#utility.yul\":3240:3251   */\n      0x00\n        /* \"#utility.yul\":3274:3280   */\n      dup3\n        /* \"#utility.yul\":3269:3272   */\n      dup3\n        /* \"#utility.yul\":3262:3281   */\n      mstore\n        /* \"#utility.yul\":3314:3318   */\n      0x20\n        /* \"#utility.yul\":3309:3312   */\n      dup3\n        /* \"#utility.yul\":3305:3319   */\n      add\n        /* \"#utility.yul\":3290:3319   */\n      swap1\n      pop\n        /* \"#utility.yul\":3166:3325   */\n      swap3\n      swap2\n      pop\n      pop\n      jump\t// out\n        /* \"#utility.yul\":3331:3470   */\n    tag_111:\n        /* \"#utility.yul\":3420:3426   */\n      dup3\n        /* \"#utility.yul\":3415:3418   */\n      dup2\n        /* \"#utility.yul\":3410:3413   */\n      dup4\n        /* \"#utility.yul\":3404:3427   */\n      mcopy\n        /* \"#utility.yul\":3461:3462   */\n      0x00\n        /* \"#utility.yul\":3452:3458   */\n      dup4\n        /* \"#utility.yul\":3447:3450   */\n      dup4\n        /* \"#utility.yul\":3443:3459   */\n      add\n        /* \"#utility.yul\":3436:3463   */\n      mstore\n        /* \"#utility.yul\":3331:3470   */\n      pop\n      pop\n      pop\n      jump\t// out\n        /* \"#utility.yul\":3476:3578   */\n    tag_112:\n        /* \"#utility.yul\":3517:3523   */\n      0x00\n        /* \"#utility.yul\":3568:3570   */\n      0x1f\n        /* \"#utility.yul\":3564:3571   */\n      not\n        /* \"#utility.yul\":3559:3561   */\n      0x1f\n        /* \"#utility.yul\":3552:3557   */\n      dup4\n        /* \"#utility.yul\":3548:3562   */\n      add\n        /* \"#utility.yul\":3544:3572   */\n      and\n        /* \"#utility.yul\":3534:3572   */\n      swap1\n      pop\n        /* \"#utility.yul\":3476:3578   */\n      swap2\n      swap1\n      pop\n      jump\t// out\n        /* \"#utility.yul\":3584:3941   */\n    tag_113:\n        /* \"#utility.yul\":3662:3665   */\n      0x00\n        /* \"#utility.yul\":3690:3729   */\n      tag_192\n        /* \"#utility.yul\":3723:3728   */\n      dup3\n        /* \"#utility.yul\":3690:3729   */\n      tag_109\n      jump\t// in\n    tag_192:\n        /* \"#utility.yul\":3745:3806   */\n      tag_193\n        /* \"#utility.yul\":3799:3805   */\n      dup2\n        /* \"#utility.yul\":3794:3797   */\n      dup6\n        /* \"#utility.yul\":3745:3806   */\n      tag_110\n      jump\t// in\n    tag_193:\n        /* \"#utility.yul\":3738:3806   */\n      swap4\n      pop\n        /* \"#utility.yul\":3815:3880   */\n      tag_194\n        /* \"#utility.yul\":3873:3879   */\n      dup2\n        /* \"#utility.yul\":3868:3871   */\n      dup6\n        /* \"#utility.yul\":3861:3865   */\n      0x20\n        /* \"#utility.yul\":3854:3859   */\n      dup7\n        /* \"#utility.yul\":3850:3866   */\n      add\n        /* \"#utility.yul\":3815:3880   */\n      tag_111\n      jump\t// in\n    tag_194:\n        /* \"#utility.yul\":3905:3934   */\n      tag_195\n        /* \"#utility.yul\":3927:3933   */\n      dup2\n        /* \"#utility.yul\":3905:3934   */\n      tag_112\n      jump\t// in\n    tag_195:\n        /* \"#utility.yul\":3900:3903   */\n      dup5\n        /* \"#utility.yul\":3896:3935   */\n      add\n        /* \"#utility.yul\":3889:3935   */\n      swap2\n      pop\n        /* \"#utility.yul\":3666:3941   */\n      pop\n        /* \"#utility.yul\":3584:3941   */\n      swap3\n      swap2\n      pop\n      pop\n      jump\t// out\n        /* \"#utility.yul\":3947:4051   */\n    tag_114:\n        /* \"#utility.yul\":3992:3999   */\n      0x00\n        /* \"#utility.yul\":4021:4045   */\n      tag_197\n        /* \"#utility.yul\":4039:4044   */\n      dup3\n        /* \"#utility.yul\":4021:4045   */\n      tag_102\n      jump\t// in\n    tag_197:\n        /* \"#utility.yul\":4010:4045   */\n      swap1\n      pop\n        /* \"#utility.yul\":3947:4051   */\n      swap2\n      swap1\n      pop\n      jump\t// out\n        /* \"#utility.yul\":4057:4189   */\n    tag_115:\n        /* \"#utility.yul\":4150:4182   */\n      tag_199\n        /* \"#utility.yul\":4176:4181   */\n      dup2\n        /* \"#utility.yul\":4150:4182   */\n      tag_114\n      jump\t// in\n    tag_199:\n        /* \"#utility.yul\":4145:4148   */\n      dup3\n        /* \"#utility.yul\":4138:4183   */\n      mstore\n        /* \"#utility.yul\":4057:4189   */\n      pop\n      pop\n      jump\t// out\n        /* \"#utility.yul\":4195:4303   */\n    tag_116:\n        /* \"#utility.yul\":4272:4296   */\n      tag_201\n        /* \"#utility.yul\":4290:4295   */\n      dup2\n        /* \"#utility.yul\":4272:4296   */\n      tag_99\n      jump\t// in\n    tag_201:\n        /* \"#utility.yul\":4267:4270   */\n      dup3\n        /* \"#utility.yul\":4260:4297   */\n      mstore\n        /* \"#utility.yul\":4195:4303   */\n      pop\n      pop\n      jump\t// out\n        /* \"#utility.yul\":4359:5402   */\n    tag_117:\n        /* \"#utility.yul\":4458:4461   */\n      0x00\n        /* \"#utility.yul\":4494:4498   */\n      0x80\n        /* \"#utility.yul\":4489:4492   */\n      dup4\n        /* \"#utility.yul\":4485:4499   */\n      add\n        /* \"#utility.yul\":4581:4585   */\n      0x00\n        /* \"#utility.yul\":4574:4579   */\n      dup4\n        /* \"#utility.yul\":4570:4586   */\n      add\n        /* \"#utility.yul\":4564:4587   */\n      mload\n        /* \"#utility.yul\":4634:4637   */\n      dup5\n        /* \"#utility.yul\":4628:4632   */\n      dup3\n        /* \"#utility.yul\":4624:4638   */\n      sub\n        /* \"#utility.yul\":4617:4621   */\n      0x00\n        /* \"#utility.yul\":4612:4615   */\n      dup7\n        /* \"#utility.yul\":4608:4622   */\n      add\n        /* \"#utility.yul\":4601:4639   */\n      mstore\n        /* \"#utility.yul\":4660:4733   */\n      tag_203\n        /* \"#utility.yul\":4728:4732   */\n      dup3\n        /* \"#utility.yul\":4714:4726   */\n      dup3\n        /* \"#utility.yul\":4660:4733   */\n      tag_113\n      jump\t// in\n    tag_203:\n        /* \"#utility.yul\":4652:4733   */\n      swap2\n      pop\n        /* \"#utility.yul\":4509:4744   */\n      pop\n        /* \"#utility.yul\":4833:4837   */\n      0x20\n        /* \"#utility.yul\":4826:4831   */\n      dup4\n        /* \"#utility.yul\":4822:4838   */\n      add\n        /* \"#utility.yul\":4816:4839   */\n      mload\n        /* \"#utility.yul\":4886:4889   */\n      dup5\n        /* \"#utility.yul\":4880:4884   */\n      dup3\n        /* \"#utility.yul\":4876:4890   */\n      sub\n        /* \"#utility.yul\":4869:4873   */\n      0x20\n        /* \"#utility.yul\":4864:4867   */\n      dup7\n        /* \"#utility.yul\":4860:4874   */\n      add\n        /* \"#utility.yul\":4853:4891   */\n      mstore\n        /* \"#utility.yul\":4912:4985   */\n      tag_204\n        /* \"#utility.yul\":4980:4984   */\n      dup3\n        /* \"#utility.yul\":4966:4978   */\n      dup3\n        /* \"#utility.yul\":4912:4985   */\n      tag_113\n      jump\t// in\n    tag_204:\n        /* \"#utility.yul\":4904:4985   */\n      swap2\n      pop\n        /* \"#utility.yul\":4754:4996   */\n      pop\n        /* \"#utility.yul\":5087:5091   */\n      0x40\n        /* \"#utility.yul\":5080:5085   */\n      dup4\n        /* \"#utility.yul\":5076:5092   */\n      add\n        /* \"#utility.yul\":5070:5093   */\n      mload\n        /* \"#utility.yul\":5106:5185   */\n      tag_205\n        /* \"#utility.yul\":5179:5183   */\n      0x40\n        /* \"#utility.yul\":5174:5177   */\n      dup7\n        /* \"#utility.yul\":5170:5184   */\n      add\n        /* \"#utility.yul\":5156:5168   */\n      dup3\n        /* \"#utility.yul\":5106:5185   */\n      tag_115\n      jump\t// in\n    tag_205:\n        /* \"#utility.yul\":5006:5195   */\n      pop\n        /* \"#utility.yul\":5283:5287   */\n      0x60\n        /* \"#utility.yul\":5276:5281   */\n      dup4\n        /* \"#utility.yul\":5272:5288   */\n      add\n        /* \"#utility.yul\":5266:5289   */\n      mload\n        /* \"#utility.yul\":5302:5365   */\n      tag_206\n        /* \"#utility.yul\":5359:5363   */\n      0x60\n        /* \"#utility.yul\":5354:5357   */\n      dup7\n        /* \"#utility.yul\":5350:5364   */\n      add\n        /* \"#utility.yul\":5336:5348   */\n      dup3\n        /* \"#utility.yul\":5302:5365   */\n      tag_116\n      jump\t// in\n    tag_206:\n        /* \"#utility.yul\":5205:5375   */\n      pop\n        /* \"#utility.yul\":5392:5396   */\n      dup1\n        /* \"#utility.yul\":5385:5396   */\n      swap2\n      pop\n        /* \"#utility.yul\":4463:5402   */\n      pop\n        /* \"#utility.yul\":4359:5402   */\n      swap3\n      swap2\n      pop\n      pop\n      jump\t// out\n        /* \"#utility.yul\":5408:5644   */\n    tag_118:\n        /* \"#utility.yul\":5517:5527   */\n      0x00\n        /* \"#utility.yul\":5552:5638   */\n      tag_208\n        /* \"#utility.yul\":5634:5637   */\n      dup4\n        /* \"#utility.yul\":5626:5632   */\n      dup4\n        /* \"#utility.yul\":5552:5638   */\n      tag_117\n      jump\t// in\n    tag_208:\n        /* \"#utility.yul\":5538:5638   */\n      swap1\n      pop\n        /* \"#utility.yul\":5408:5644   */\n      swap3\n      swap2\n      pop\n      pop\n      jump\t// out\n        /* \"#utility.yul\":5650:5783   */\n    tag_119:\n        /* \"#utility.yul\":5740:5744   */\n      0x00\n        /* \"#utility.yul\":5772:5776   */\n      0x20\n        /* \"#utility.yul\":5767:5770   */\n      dup3\n        /* \"#utility.yul\":5763:5777   */\n      add\n        /* \"#utility.yul\":5755:5777   */\n      swap1\n      pop\n        /* \"#utility.yul\":5650:5783   */\n      swap2\n      swap1\n      pop\n      jump\t// out\n        /* \"#utility.yul\":5843:6914   */\n    tag_120:\n        /* \"#utility.yul\":6002:6005   */\n      0x00\n        /* \"#utility.yul\":6031:6105   */\n      tag_211\n        /* \"#utility.yul\":6099:6104   */\n      dup3\n        /* \"#utility.yul\":6031:6105   */\n      tag_106\n      jump\t// in\n    tag_211:\n        /* \"#utility.yul\":6121:6227   */\n      tag_212\n        /* \"#utility.yul\":6220:6226   */\n      dup2\n        /* \"#utility.yul\":6215:6218   */\n      dup6\n        /* \"#utility.yul\":6121:6227   */\n      tag_107\n      jump\t// in\n    tag_212:\n        /* \"#utility.yul\":6114:6227   */\n      swap4\n      pop\n        /* \"#utility.yul\":6253:6256   */\n      dup4\n        /* \"#utility.yul\":6298:6302   */\n      0x20\n        /* \"#utility.yul\":6290:6296   */\n      dup3\n        /* \"#utility.yul\":6286:6303   */\n      mul\n        /* \"#utility.yul\":6281:6284   */\n      dup6\n        /* \"#utility.yul\":6277:6304   */\n      add\n        /* \"#utility.yul\":6328:6404   */\n      tag_213\n        /* \"#utility.yul\":6398:6403   */\n      dup6\n        /* \"#utility.yul\":6328:6404   */\n      tag_108\n      jump\t// in\n    tag_213:\n        /* \"#utility.yul\":6427:6434   */\n      dup1\n        /* \"#utility.yul\":6458:6459   */\n      0x00\n        /* \"#utility.yul\":6443:6869   */\n    tag_214:\n        /* \"#utility.yul\":6468:6474   */\n      dup6\n        /* \"#utility.yul\":6465:6466   */\n      dup2\n        /* \"#utility.yul\":6462:6475   */\n      lt\n        /* \"#utility.yul\":6443:6869   */\n      iszero\n      tag_216\n      jumpi\n        /* \"#utility.yul\":6539:6548   */\n      dup5\n        /* \"#utility.yul\":6533:6537   */\n      dup5\n        /* \"#utility.yul\":6529:6549   */\n      sub\n        /* \"#utility.yul\":6524:6527   */\n      dup10\n        /* \"#utility.yul\":6517:6550   */\n      mstore\n        /* \"#utility.yul\":6590:6596   */\n      dup2\n        /* \"#utility.yul\":6584:6597   */\n      mload\n        /* \"#utility.yul\":6618:6722   */\n      tag_217\n        /* \"#utility.yul\":6717:6721   */\n      dup6\n        /* \"#utility.yul\":6702:6715   */\n      dup3\n        /* \"#utility.yul\":6618:6722   */\n      tag_118\n      jump\t// in\n    tag_217:\n        /* \"#utility.yul\":6610:6722   */\n      swap5\n      pop\n        /* \"#utility.yul\":6745:6825   */\n      tag_218\n        /* \"#utility.yul\":6818:6824   */\n      dup4\n        /* \"#utility.yul\":6745:6825   */\n      tag_119\n      jump\t// in\n    tag_218:\n        /* \"#utility.yul\":6735:6825   */\n      swap3\n      pop\n        /* \"#utility.yul\":6854:6858   */\n      0x20\n        /* \"#utility.yul\":6849:6852   */\n      dup11\n        /* \"#utility.yul\":6845:6859   */\n      add\n        /* \"#utility.yul\":6838:6859   */\n      swap10\n      pop\n        /* \"#utility.yul\":6503:6869   */\n      pop\n        /* \"#utility.yul\":6490:6491   */\n      0x01\n        /* \"#utility.yul\":6487:6488   */\n      dup2\n        /* \"#utility.yul\":6483:6492   */\n      add\n        /* \"#utility.yul\":6478:6492   */\n      swap1\n      pop\n        /* \"#utility.yul\":6443:6869   */\n      jump(tag_214)\n    tag_216:\n        /* \"#utility.yul\":6447:6461   */\n      pop\n        /* \"#utility.yul\":6885:6889   */\n      dup3\n        /* \"#utility.yul\":6878:6889   */\n      swap8\n      pop\n        /* \"#utility.yul\":6905:6908   */\n      dup8\n        /* \"#utility.yul\":6898:6908   */\n      swap6\n      pop\n        /* \"#utility.yul\":6007:6914   */\n      pop\n      pop\n      pop\n      pop\n      pop\n        /* \"#utility.yul\":5843:6914   */\n      swap3\n      swap2\n      pop\n      pop\n      jump\t// out\n        /* \"#utility.yul\":6920:7373   */\n    tag_28:\n        /* \"#utility.yul\":7103:7107   */\n      0x00\n        /* \"#utility.yul\":7141:7143   */\n      0x20\n        /* \"#utility.yul\":7130:7139   */\n      dup3\n        /* \"#utility.yul\":7126:7144   */\n      add\n        /* \"#utility.yul\":7118:7144   */\n      swap1\n      pop\n        /* \"#utility.yul\":7190:7199   */\n      dup2\n        /* \"#utility.yul\":7184:7188   */\n      dup2\n        /* \"#utility.yul\":7180:7200   */\n      sub\n        /* \"#utility.yul\":7176:7177   */\n      0x00\n        /* \"#utility.yul\":7165:7174   */\n      dup4\n        /* \"#utility.yul\":7161:7178   */\n      add\n        /* \"#utility.yul\":7154:7201   */\n      mstore\n        /* \"#utility.yul\":7218:7366   */\n      tag_220\n        /* \"#utility.yul\":7361:7365   */\n      dup2\n        /* \"#utility.yul\":7352:7358   */\n      dup5\n        /* \"#utility.yul\":7218:7366   */\n      tag_120\n      jump\t// in\n    tag_220:\n        /* \"#utility.yul\":7210:7366   */\n      swap1\n      pop\n        /* \"#utility.yul\":6920:7373   */\n      swap3\n      swap2\n      pop\n      pop\n      jump\t// out\n        /* \"#utility.yul\":7379:7548   */\n    tag_121:\n        /* \"#utility.yul\":7463:7474   */\n      0x00\n        /* \"#utility.yul\":7497:7503   */\n      dup3\n        /* \"#utility.yul\":7492:7495   */\n      dup3\n        /* \"#utility.yul\":7485:7504   */\n      mstore\n        /* \"#utility.yul\":7537:7541   */\n      0x20\n        /* \"#utility.yul\":7532:7535   */\n      dup3\n        /* \"#utility.yul\":7528:7542   */\n      add\n        /* \"#utility.yul\":7513:7542   */\n      swap1\n      pop\n        /* \"#utility.yul\":7379:7548   */\n      swap3\n      swap2\n      pop\n      pop\n      jump\t// out\n        /* \"#utility.yul\":7554:7931   */\n    tag_122:\n        /* \"#utility.yul\":7642:7645   */\n      0x00\n        /* \"#utility.yul\":7670:7709   */\n      tag_223\n        /* \"#utility.yul\":7703:7708   */\n      dup3\n        /* \"#utility.yul\":7670:7709   */\n      tag_109\n      jump\t// in\n    tag_223:\n        /* \"#utility.yul\":7725:7796   */\n      tag_224\n        /* \"#utility.yul\":7789:7795   */\n      dup2\n        /* \"#utility.yul\":7784:7787   */\n      dup6\n        /* \"#utility.yul\":7725:7796   */\n      tag_121\n      jump\t// in\n    tag_224:\n        /* \"#utility.yul\":7718:7796   */\n      swap4\n      pop\n        /* \"#utility.yul\":7805:7870   */\n      tag_225\n        /* \"#utility.yul\":7863:7869   */\n      dup2\n        /* \"#utility.yul\":7858:7861   */\n      dup6\n        /* \"#utility.yul\":7851:7855   */\n      0x20\n        /* \"#utility.yul\":7844:7849   */\n      dup7\n        /* \"#utility.yul\":7840:7856   */\n      add\n        /* \"#utility.yul\":7805:7870   */\n      tag_111\n      jump\t// in\n    tag_225:\n        /* \"#utility.yul\":7895:7924   */\n      tag_226\n        /* \"#utility.yul\":7917:7923   */\n      dup2\n        /* \"#utility.yul\":7895:7924   */\n      tag_112\n      jump\t// in\n    tag_226:\n        /* \"#utility.yul\":7890:7893   */\n      dup5\n        /* \"#utility.yul\":7886:7925   */\n      add\n        /* \"#utility.yul\":7879:7925   */\n      swap2\n      pop\n        /* \"#utility.yul\":7646:7931   */\n      pop\n        /* \"#utility.yul\":7554:7931   */\n      swap3\n      swap2\n      pop\n      pop\n      jump\t// out\n        /* \"#utility.yul\":7937:8079   */\n    tag_123:\n        /* \"#utility.yul\":8040:8072   */\n      tag_228\n        /* \"#utility.yul\":8066:8071   */\n      dup2\n        /* \"#utility.yul\":8040:8072   */\n      tag_114\n      jump\t// in\n    tag_228:\n        /* \"#utility.yul\":8035:8038   */\n      dup3\n        /* \"#utility.yul\":8028:8073   */\n      mstore\n        /* \"#utility.yul\":7937:8079   */\n      pop\n      pop\n      jump\t// out\n        /* \"#utility.yul\":8085:8852   */\n    tag_34:\n        /* \"#utility.yul\":8318:8322   */\n      0x00\n        /* \"#utility.yul\":8356:8359   */\n      0x80\n        /* \"#utility.yul\":8345:8354   */\n      dup3\n        /* \"#utility.yul\":8341:8360   */\n      add\n        /* \"#utility.yul\":8333:8360   */\n      swap1\n      pop\n        /* \"#utility.yul\":8406:8415   */\n      dup2\n        /* \"#utility.yul\":8400:8404   */\n      dup2\n        /* \"#utility.yul\":8396:8416   */\n      sub\n        /* \"#utility.yul\":8392:8393   */\n      0x00\n        /* \"#utility.yul\":8381:8390   */\n      dup4\n        /* \"#utility.yul\":8377:8394   */\n      add\n        /* \"#utility.yul\":8370:8417   */\n      mstore\n        /* \"#utility.yul\":8434:8512   */\n      tag_230\n        /* \"#utility.yul\":8507:8511   */\n      dup2\n        /* \"#utility.yul\":8498:8504   */\n      dup8\n        /* \"#utility.yul\":8434:8512   */\n      tag_122\n      jump\t// in\n    tag_230:\n        /* \"#utility.yul\":8426:8512   */\n      swap1\n      pop\n        /* \"#utility.yul\":8559:8568   */\n      dup2\n        /* \"#utility.yul\":8553:8557   */\n      dup2\n        /* \"#utility.yul\":8549:8569   */\n      sub\n        /* \"#utility.yul\":8544:8546   */\n      0x20\n        /* \"#utility.yul\":8533:8542   */\n      dup4\n        /* \"#utility.yul\":8529:8547   */\n      add\n        /* \"#utility.yul\":8522:8570   */\n      mstore\n        /* \"#utility.yul\":8587:8665   */\n      tag_231\n        /* \"#utility.yul\":8660:8664   */\n      dup2\n        /* \"#utility.yul\":8651:8657   */\n      dup7\n        /* \"#utility.yul\":8587:8665   */\n      tag_122\n      jump\t// in\n    tag_231:\n        /* \"#utility.yul\":8579:8665   */\n      swap1\n      pop\n        /* \"#utility.yul\":8675:8763   */\n      tag_232\n        /* \"#utility.yul\":8759:8761   */\n      0x40\n        /* \"#utility.yul\":8748:8757   */\n      dup4\n        /* \"#utility.yul\":8744:8762   */\n      add\n        /* \"#utility.yul\":8735:8741   */\n      dup6\n        /* \"#utility.yul\":8675:8763   */\n      tag_123\n      jump\t// in\n    tag_232:\n        /* \"#utility.yul\":8773:8845   */\n      tag_233\n        /* \"#utility.yul\":8841:8843   */\n      0x60\n        /* \"#utility.yul\":8830:8839   */\n      dup4\n        /* \"#utility.yul\":8826:8844   */\n      add\n        /* \"#utility.yul\":8817:8823   */\n      dup5\n        /* \"#utility.yul\":8773:8845   */\n      tag_105\n      jump\t// in\n    tag_233:\n        /* \"#utility.yul\":8085:8852   */\n      swap6\n      swap5\n      pop\n      pop\n      pop\n      pop\n      pop\n      jump\t// out\n        /* \"#utility.yul\":8858:8975   */\n    tag_124:\n        /* \"#utility.yul\":8967:8968   */\n      0x00\n        /* \"#utility.yul\":8964:8965   */\n      dup1\n        /* \"#utility.yul\":8957:8969   */\n      revert\n        /* \"#utility.yul\":8981:9098   */\n    tag_125:\n        /* \"#utility.yul\":9090:9091   */\n      0x00\n        /* \"#utility.yul\":9087:9088   */\n      dup1\n        /* \"#utility.yul\":9080:9092   */\n      revert\n        /* \"#utility.yul\":9104:9284   */\n    tag_58:\n        /* \"#utility.yul\":9152:9229   */\n      0x4e487b7100000000000000000000000000000000000000000000000000000000\n        /* \"#utility.yul\":9149:9150   */\n      0x00\n        /* \"#utility.yul\":9142:9230   */\n      mstore\n        /* \"#utility.yul\":9249:9253   */\n      0x41\n        /* \"#utility.yul\":9246:9247   */\n      0x04\n        /* \"#utility.yul\":9239:9254   */\n      mstore\n        /* \"#utility.yul\":9273:9277   */\n      0x24\n        /* \"#utility.yul\":9270:9271   */\n      0x00\n        /* \"#utility.yul\":9263:9278   */\n      revert\n        /* \"#utility.yul\":9290:9571   */\n    tag_126:\n        /* \"#utility.yul\":9373:9400   */\n      tag_238\n        /* \"#utility.yul\":9395:9399   */\n      dup3\n        /* \"#utility.yul\":9373:9400   */\n      tag_112\n      jump\t// in\n    tag_238:\n        /* \"#utility.yul\":9365:9371   */\n      dup2\n        /* \"#utility.yul\":9361:9401   */\n      add\n        /* \"#utility.yul\":9503:9509   */\n      dup2\n        /* \"#utility.yul\":9491:9501   */\n      dup2\n        /* \"#utility.yul\":9488:9510   */\n      lt\n        /* \"#utility.yul\":9467:9485   */\n      0xffffffffffffffff\n        /* \"#utility.yul\":9455:9465   */\n      dup3\n        /* \"#utility.yul\":9452:9486   */\n      gt\n        /* \"#utility.yul\":9449:9511   */\n      or\n        /* \"#utility.yul\":9446:9534   */\n      iszero\n      tag_239\n      jumpi\n        /* \"#utility.yul\":9514:9532   */\n      tag_240\n      tag_58\n      jump\t// in\n    tag_240:\n        /* \"#utility.yul\":9446:9534   */\n    tag_239:\n        /* \"#utility.yul\":9554:9564   */\n      dup1\n        /* \"#utility.yul\":9550:9552   */\n      0x40\n        /* \"#utility.yul\":9543:9565   */\n      mstore\n        /* \"#utility.yul\":9333:9571   */\n      pop\n        /* \"#utility.yul\":9290:9571   */\n      pop\n      pop\n      jump\t// out\n        /* \"#utility.yul\":9577:9706   */\n    tag_127:\n        /* \"#utility.yul\":9611:9617   */\n      0x00\n        /* \"#utility.yul\":9638:9658   */\n      tag_242\n      tag_96\n      jump\t// in\n    tag_242:\n        /* \"#utility.yul\":9628:9658   */\n      swap1\n      pop\n        /* \"#utility.yul\":9667:9700   */\n      tag_243\n        /* \"#utility.yul\":9695:9699   */\n      dup3\n        /* \"#utility.yul\":9687:9693   */\n      dup3\n        /* \"#utility.yul\":9667:9700   */\n      tag_126\n      jump\t// in\n    tag_243:\n        /* \"#utility.yul\":9577:9706   */\n      swap2\n      swap1\n      pop\n      jump\t// out\n        /* \"#utility.yul\":9712:10020   */\n    tag_128:\n        /* \"#utility.yul\":9774:9778   */\n      0x00\n        /* \"#utility.yul\":9864:9882   */\n      0xffffffffffffffff\n        /* \"#utility.yul\":9856:9862   */\n      dup3\n        /* \"#utility.yul\":9853:9883   */\n      gt\n        /* \"#utility.yul\":9850:9906   */\n      iszero\n      tag_245\n      jumpi\n        /* \"#utility.yul\":9886:9904   */\n      tag_246\n      tag_58\n      jump\t// in\n    tag_246:\n        /* \"#utility.yul\":9850:9906   */\n    tag_245:\n        /* \"#utility.yul\":9924:9953   */\n      tag_247\n        /* \"#utility.yul\":9946:9952   */\n      dup3\n        /* \"#utility.yul\":9924:9953   */\n      tag_112\n      jump\t// in\n    tag_247:\n        /* \"#utility.yul\":9916:9953   */\n      swap1\n      pop\n        /* \"#utility.yul\":10008:10012   */\n      0x20\n        /* \"#utility.yul\":10002:10006   */\n      dup2\n        /* \"#utility.yul\":9998:10013   */\n      add\n        /* \"#utility.yul\":9990:10013   */\n      swap1\n      pop\n        /* \"#utility.yul\":9712:10020   */\n      swap2\n      swap1\n      pop\n      jump\t// out\n        /* \"#utility.yul\":10026:10174   */\n    tag_129:\n        /* \"#utility.yul\":10124:10130   */\n      dup3\n        /* \"#utility.yul\":10119:10122   */\n      dup2\n        /* \"#utility.yul\":10114:10117   */\n      dup4\n        /* \"#utility.yul\":10101:10131   */\n      calldatacopy\n        /* \"#utility.yul\":10165:10166   */\n      0x00\n        /* \"#utility.yul\":10156:10162   */\n      dup4\n        /* \"#utility.yul\":10151:10154   */\n      dup4\n        /* \"#utility.yul\":10147:10163   */\n      add\n        /* \"#utility.yul\":10140:10167   */\n      mstore\n        /* \"#utility.yul\":10026:10174   */\n      pop\n      pop\n      pop\n      jump\t// out\n        /* \"#utility.yul\":10180:10605   */\n    tag_130:\n        /* \"#utility.yul\":10258:10263   */\n      0x00\n        /* \"#utility.yul\":10283:10349   */\n      tag_250\n        /* \"#utility.yul\":10299:10348   */\n      tag_251\n        /* \"#utility.yul\":10341:10347   */\n      dup5\n        /* \"#utility.yul\":10299:10348   */\n      tag_128\n      jump\t// in\n    tag_251:\n        /* \"#utility.yul\":10283:10349   */\n      tag_127\n      jump\t// in\n    tag_250:\n        /* \"#utility.yul\":10274:10349   */\n      swap1\n      pop\n        /* \"#utility.yul\":10372:10378   */\n      dup3\n        /* \"#utility.yul\":10365:10370   */\n      dup2\n        /* \"#utility.yul\":10358:10379   */\n      mstore\n        /* \"#utility.yul\":10410:10414   */\n      0x20\n        /* \"#utility.yul\":10403:10408   */\n      dup2\n        /* \"#utility.yul\":10399:10415   */\n      add\n        /* \"#utility.yul\":10448:10451   */\n      dup5\n        /* \"#utility.yul\":10439:10445   */\n      dup5\n        /* \"#utility.yul\":10434:10437   */\n      dup5\n        /* \"#utility.yul\":10430:10446   */\n      add\n        /* \"#utility.yul\":10427:10452   */\n      gt\n        /* \"#utility.yul\":10424:10536   */\n      iszero\n      tag_252\n      jumpi\n        /* \"#utility.yul\":10455:10534   */\n      tag_253\n      tag_125\n      jump\t// in\n    tag_253:\n        /* \"#utility.yul\":10424:10536   */\n    tag_252:\n        /* \"#utility.yul\":10545:10599   */\n      tag_254\n        /* \"#utility.yul\":10592:10598   */\n      dup5\n        /* \"#utility.yul\":10587:10590   */\n      dup3\n        /* \"#utility.yul\":10582:10585   */\n      dup6\n        /* \"#utility.yul\":10545:10599   */\n      tag_129\n      jump\t// in\n    tag_254:\n        /* \"#utility.yul\":10264:10605   */\n      pop\n        /* \"#utility.yul\":10180:10605   */\n      swap4\n      swap3\n      pop\n      pop\n      pop\n      jump\t// out\n        /* \"#utility.yul\":10625:10965   */\n    tag_131:\n        /* \"#utility.yul\":10681:10686   */\n      0x00\n        /* \"#utility.yul\":10730:10733   */\n      dup3\n        /* \"#utility.yul\":10723:10727   */\n      0x1f\n        /* \"#utility.yul\":10715:10721   */\n      dup4\n        /* \"#utility.yul\":10711:10728   */\n      add\n        /* \"#utility.yul\":10707:10734   */\n      slt\n        /* \"#utility.yul\":10697:10819   */\n      tag_256\n      jumpi\n        /* \"#utility.yul\":10738:10817   */\n      tag_257\n      tag_124\n      jump\t// in\n    tag_257:\n        /* \"#utility.yul\":10697:10819   */\n    tag_256:\n        /* \"#utility.yul\":10855:10861   */\n      dup2\n        /* \"#utility.yul\":10842:10862   */\n      calldataload\n        /* \"#utility.yul\":10880:10959   */\n      tag_258\n        /* \"#utility.yul\":10955:10958   */\n      dup5\n        /* \"#utility.yul\":10947:10953   */\n      dup3\n        /* \"#utility.yul\":10940:10944   */\n      0x20\n        /* \"#utility.yul\":10932:10938   */\n      dup7\n        /* \"#utility.yul\":10928:10945   */\n      add\n        /* \"#utility.yul\":10880:10959   */\n      tag_130\n      jump\t// in\n    tag_258:\n        /* \"#utility.yul\":10871:10959   */\n      swap2\n      pop\n        /* \"#utility.yul\":10687:10965   */\n      pop\n        /* \"#utility.yul\":10625:10965   */\n      swap3\n      swap2\n      pop\n      pop\n      jump\t// out\n        /* \"#utility.yul\":10971:11805   */\n    tag_38:\n        /* \"#utility.yul\":11059:11065   */\n      0x00\n        /* \"#utility.yul\":11067:11073   */\n      dup1\n        /* \"#utility.yul\":11116:11118   */\n      0x40\n        /* \"#utility.yul\":11104:11113   */\n      dup4\n        /* \"#utility.yul\":11095:11102   */\n      dup6\n        /* \"#utility.yul\":11091:11114   */\n      sub\n        /* \"#utility.yul\":11087:11119   */\n      slt\n        /* \"#utility.yul\":11084:11203   */\n      iszero\n      tag_260\n      jumpi\n        /* \"#utility.yul\":11122:11201   */\n      tag_261\n      tag_97\n      jump\t// in\n    tag_261:\n        /* \"#utility.yul\":11084:11203   */\n    tag_260:\n        /* \"#utility.yul\":11270:11271   */\n      0x00\n        /* \"#utility.yul\":11259:11268   */\n      dup4\n        /* \"#utility.yul\":11255:11272   */\n      add\n        /* \"#utility.yul\":11242:11273   */\n      calldataload\n        /* \"#utility.yul\":11300:11318   */\n      0xffffffffffffffff\n        /* \"#utility.yul\":11292:11298   */\n      dup2\n        /* \"#utility.yul\":11289:11319   */\n      gt\n        /* \"#utility.yul\":11286:11403   */\n      iszero\n      tag_262\n      jumpi\n        /* \"#utility.yul\":11322:11401   */\n      tag_263\n      tag_98\n      jump\t// in\n    tag_263:\n        /* \"#utility.yul\":11286:11403   */\n    tag_262:\n        /* \"#utility.yul\":11427:11490   */\n      tag_264\n        /* \"#utility.yul\":11482:11489   */\n      dup6\n        /* \"#utility.yul\":11473:11479   */\n      dup3\n        /* \"#utility.yul\":11462:11471   */\n      dup7\n        /* \"#utility.yul\":11458:11480   */\n      add\n        /* \"#utility.yul\":11427:11490   */\n      tag_131\n      jump\t// in\n    tag_264:\n        /* \"#utility.yul\":11417:11490   */\n      swap3\n      pop\n        /* \"#utility.yul\":11213:11500   */\n      pop\n        /* \"#utility.yul\":11567:11569   */\n      0x20\n        /* \"#utility.yul\":11556:11565   */\n      dup4\n        /* \"#utility.yul\":11552:11570   */\n      add\n        /* \"#utility.yul\":11539:11571   */\n      calldataload\n        /* \"#utility.yul\":11598:11616   */\n      0xffffffffffffffff\n        /* \"#utility.yul\":11590:11596   */\n      dup2\n        /* \"#utility.yul\":11587:11617   */\n      gt\n        /* \"#utility.yul\":11584:11701   */\n      iszero\n      tag_265\n      jumpi\n        /* \"#utility.yul\":11620:11699   */\n      tag_266\n      tag_98\n      jump\t// in\n    tag_266:\n        /* \"#utility.yul\":11584:11701   */\n    tag_265:\n        /* \"#utility.yul\":11725:11788   */\n      tag_267\n        /* \"#utility.yul\":11780:11787   */\n      dup6\n        /* \"#utility.yul\":11771:11777   */\n      dup3\n        /* \"#utility.yul\":11760:11769   */\n      dup7\n        /* \"#utility.yul\":11756:11778   */\n      add\n        /* \"#utility.yul\":11725:11788   */\n      tag_131\n      jump\t// in\n    tag_267:\n        /* \"#utility.yul\":11715:11788   */\n      swap2\n      pop\n        /* \"#utility.yul\":11510:11798   */\n      pop\n        /* \"#utility.yul\":10971:11805   */\n      swap3\n      pop\n      swap3\n      swap1\n      pop\n      jump\t// out\n        /* \"#utility.yul\":11811:11976   */\n    tag_132:\n        /* \"#utility.yul\":11951:11968   */\n      0x496e76616c6964206974656d2049440000000000000000000000000000000000\n        /* \"#utility.yul\":11947:11948   */\n      0x00\n        /* \"#utility.yul\":11939:11945   */\n      dup3\n        /* \"#utility.yul\":11935:11949   */\n      add\n        /* \"#utility.yul\":11928:11969   */\n      mstore\n        /* \"#utility.yul\":11811:11976   */\n      pop\n      jump\t// out\n        /* \"#utility.yul\":11982:12348   */\n    tag_133:\n        /* \"#utility.yul\":12124:12127   */\n      0x00\n        /* \"#utility.yul\":12145:12212   */\n      tag_270\n        /* \"#utility.yul\":12209:12211   */\n      0x0f\n        /* \"#utility.yul\":12204:12207   */\n      dup4\n        /* \"#utility.yul\":12145:12212   */\n      tag_121\n      jump\t// in\n    tag_270:\n        /* \"#utility.yul\":12138:12212   */\n      swap2\n      pop\n        /* \"#utility.yul\":12221:12314   */\n      tag_271\n        /* \"#utility.yul\":12310:12313   */\n      dup3\n        /* \"#utility.yul\":12221:12314   */\n      tag_132\n      jump\t// in\n    tag_271:\n        /* \"#utility.yul\":12339:12341   */\n      0x20\n        /* \"#utility.yul\":12334:12337   */\n      dup3\n        /* \"#utility.yul\":12330:12342   */\n      add\n        /* \"#utility.yul\":12323:12342   */\n      swap1\n      pop\n        /* \"#utility.yul\":11982:12348   */\n      swap2\n      swap1\n      pop\n      jump\t// out\n        /* \"#utility.yul\":12354:12773   */\n    tag_44:\n        /* \"#utility.yul\":12520:12524   */\n      0x00\n        /* \"#utility.yul\":12558:12560   */\n      0x20\n        /* \"#utility.yul\":12547:12556   */\n      dup3\n        /* \"#utility.yul\":12543:12561   */\n      add\n        /* \"#utility.yul\":12535:12561   */\n      swap1\n      pop\n        /* \"#utility.yul\":12607:12616   */\n      dup2\n        /* \"#utility.yul\":12601:12605   */\n      dup2\n        /* \"#utility.yul\":12597:12617   */\n      sub\n        /* \"#utility.yul\":12593:12594   */\n      0x00\n        /* \"#utility.yul\":12582:12591   */\n      dup4\n        /* \"#utility.yul\":12578:12595   */\n      add\n        /* \"#utility.yul\":12571:12618   */\n      mstore\n        /* \"#utility.yul\":12635:12766   */\n      tag_273\n        /* \"#utility.yul\":12761:12765   */\n      dup2\n        /* \"#utility.yul\":12635:12766   */\n      tag_133\n      jump\t// in\n    tag_273:\n        /* \"#utility.yul\":12627:12766   */\n      swap1\n      pop\n        /* \"#utility.yul\":12354:12773   */\n      swap2\n      swap1\n      pop\n      jump\t// out\n        /* \"#utility.yul\":12779:13016   */\n    tag_134:\n        /* \"#utility.yul\":12919:12953   */\n      0x42696420616d6f756e74206d75737420626520686967686572207468616e2063\n        /* \"#utility.yul\":12915:12916   */\n      0x00\n        /* \"#utility.yul\":12907:12913   */\n      dup3\n        /* \"#utility.yul\":12903:12917   */\n      add\n        /* \"#utility.yul\":12896:12954   */\n      mstore\n        /* \"#utility.yul\":12988:13008   */\n      0x757272656e742068696768657374206269640000000000000000000000000000\n        /* \"#utility.yul\":12983:12985   */\n      0x20\n        /* \"#utility.yul\":12975:12981   */\n      dup3\n        /* \"#utility.yul\":12971:12986   */\n      add\n        /* \"#utility.yul\":12964:13009   */\n      mstore\n        /* \"#utility.yul\":12779:13016   */\n      pop\n      jump\t// out\n        /* \"#utility.yul\":13022:13388   */\n    tag_135:\n        /* \"#utility.yul\":13164:13167   */\n      0x00\n        /* \"#utility.yul\":13185:13252   */\n      tag_276\n        /* \"#utility.yul\":13249:13251   */\n      0x32\n        /* \"#utility.yul\":13244:13247   */\n      dup4\n        /* \"#utility.yul\":13185:13252   */\n      tag_121\n      jump\t// in\n    tag_276:\n        /* \"#utility.yul\":13178:13252   */\n      swap2\n      pop\n        /* \"#utility.yul\":13261:13354   */\n      tag_277\n        /* \"#utility.yul\":13350:13353   */\n      dup3\n        /* \"#utility.yul\":13261:13354   */\n      tag_134\n      jump\t// in\n    tag_277:\n        /* \"#utility.yul\":13379:13381   */\n      0x40\n        /* \"#utility.yul\":13374:13377   */\n      dup3\n        /* \"#utility.yul\":13370:13382   */\n      add\n        /* \"#utility.yul\":13363:13382   */\n      swap1\n      pop\n        /* \"#utility.yul\":13022:13388   */\n      swap2\n      swap1\n      pop\n      jump\t// out\n        /* \"#utility.yul\":13394:13813   */\n    tag_47:\n        /* \"#utility.yul\":13560:13564   */\n      0x00\n        /* \"#utility.yul\":13598:13600   */\n      0x20\n        /* \"#utility.yul\":13587:13596   */\n      dup3\n        /* \"#utility.yul\":13583:13601   */\n      add\n        /* \"#utility.yul\":13575:13601   */\n      swap1\n      pop\n        /* \"#utility.yul\":13647:13656   */\n      dup2\n        /* \"#utility.yul\":13641:13645   */\n      dup2\n        /* \"#utility.yul\":13637:13657   */\n      sub\n        /* \"#utility.yul\":13633:13634   */\n      0x00\n        /* \"#utility.yul\":13622:13631   */\n      dup4\n        /* \"#utility.yul\":13618:13635   */\n      add\n        /* \"#utility.yul\":13611:13658   */\n      mstore\n        /* \"#utility.yul\":13675:13806   */\n      tag_279\n        /* \"#utility.yul\":13801:13805   */\n      dup2\n        /* \"#utility.yul\":13675:13806   */\n      tag_135\n      jump\t// in\n    tag_279:\n        /* \"#utility.yul\":13667:13806   */\n      swap1\n      pop\n        /* \"#utility.yul\":13394:13813   */\n      swap2\n      swap1\n      pop\n      jump\t// out\n        /* \"#utility.yul\":13819:13999   */\n    tag_136:\n        /* \"#utility.yul\":13867:13944   */\n      0x4e487b7100000000000000000000000000000000000000000000000000000000\n        /* \"#utility.yul\":13864:13865   */\n      0x00\n        /* \"#utility.yul\":13857:13945   */\n      mstore\n        /* \"#utility.yul\":13964:13968   */\n      0x22\n        /* \"#utility.yul\":13961:13962   */\n      0x04\n        /* \"#utility.yul\":13954:13969   */\n      mstore\n        /* \"#utility.yul\":13988:13992   */\n      0x24\n        /* \"#utility.yul\":13985:13986   */\n      0x00\n        /* \"#utility.yul\":13978:13993   */\n      revert\n        /* \"#utility.yul\":14005:14325   */\n    tag_67:\n        /* \"#utility.yul\":14049:14055   */\n      0x00\n        /* \"#utility.yul\":14086:14087   */\n      0x02\n        /* \"#utility.yul\":14080:14084   */\n      dup3\n        /* \"#utility.yul\":14076:14088   */\n      div\n        /* \"#utility.yul\":14066:14088   */\n      swap1\n      pop\n        /* \"#utility.yul\":14133:14134   */\n      0x01\n        /* \"#utility.yul\":14127:14131   */\n      dup3\n        /* \"#utility.yul\":14123:14135   */\n      and\n        /* \"#utility.yul\":14154:14172   */\n      dup1\n        /* \"#utility.yul\":14144:14225   */\n      tag_282\n      jumpi\n        /* \"#utility.yul\":14210:14214   */\n      0x7f\n        /* \"#utility.yul\":14202:14208   */\n      dup3\n        /* \"#utility.yul\":14198:14215   */\n      and\n        /* \"#utility.yul\":14188:14215   */\n      swap2\n      pop\n        /* \"#utility.yul\":14144:14225   */\n    tag_282:\n        /* \"#utility.yul\":14272:14274   */\n      0x20\n        /* \"#utility.yul\":14264:14270   */\n      dup3\n        /* \"#utility.yul\":14261:14275   */\n      lt\n        /* \"#utility.yul\":14241:14259   */\n      dup2\n        /* \"#utility.yul\":14238:14276   */\n      sub\n        /* \"#utility.yul\":14235:14319   */\n      tag_283\n      jumpi\n        /* \"#utility.yul\":14291:14309   */\n      tag_284\n      tag_136\n      jump\t// in\n    tag_284:\n        /* \"#utility.yul\":14235:14319   */\n    tag_283:\n        /* \"#utility.yul\":14056:14325   */\n      pop\n        /* \"#utility.yul\":14005:14325   */\n      swap2\n      swap1\n      pop\n      jump\t// out\n        /* \"#utility.yul\":14331:14511   */\n    tag_79:\n        /* \"#utility.yul\":14379:14456   */\n      0x4e487b7100000000000000000000000000000000000000000000000000000000\n        /* \"#utility.yul\":14376:14377   */\n      0x00\n        /* \"#utility.yul\":14369:14457   */\n      mstore\n        /* \"#utility.yul\":14476:14480   */\n      0x32\n        /* \"#utility.yul\":14473:14474   */\n      0x04\n        /* \"#utility.yul\":14466:14481   */\n      mstore\n        /* \"#utility.yul\":14500:14504   */\n      0x24\n        /* \"#utility.yul\":14497:14498   */\n      0x00\n        /* \"#utility.yul\":14490:14505   */\n      revert\n        /* \"#utility.yul\":14517:14697   */\n    tag_137:\n        /* \"#utility.yul\":14565:14642   */\n      0x4e487b7100000000000000000000000000000000000000000000000000000000\n        /* \"#utility.yul\":14562:14563   */\n      0x00\n        /* \"#utility.yul\":14555:14643   */\n      mstore\n        /* \"#utility.yul\":14662:14666   */\n      0x11\n        /* \"#utility.yul\":14659:14660   */\n      0x04\n        /* \"#utility.yul\":14652:14667   */\n      mstore\n        /* \"#utility.yul\":14686:14690   */\n      0x24\n        /* \"#utility.yul\":14683:14684   */\n      0x00\n        /* \"#utility.yul\":14676:14691   */\n      revert\n        /* \"#utility.yul\":14703:14936   */\n    tag_92:\n        /* \"#utility.yul\":14742:14745   */\n      0x00\n        /* \"#utility.yul\":14765:14789   */\n      tag_288\n        /* \"#utility.yul\":14783:14788   */\n      dup3\n        /* \"#utility.yul\":14765:14789   */\n      tag_99\n      jump\t// in\n    tag_288:\n        /* \"#utility.yul\":14756:14789   */\n      swap2\n      pop\n        /* \"#utility.yul\":14811:14877   */\n      0xffffffffffffffffffffffffffffffffffffffffffffffffffffffffffffffff\n        /* \"#utility.yul\":14804:14809   */\n      dup3\n        /* \"#utility.yul\":14801:14878   */\n      sub\n        /* \"#utility.yul\":14798:14901   */\n      tag_289\n      jumpi\n        /* \"#utility.yul\":14881:14899   */\n      tag_290\n      tag_137\n      jump\t// in\n    tag_290:\n        /* \"#utility.yul\":14798:14901   */\n    tag_289:\n        /* \"#utility.yul\":14928:14929   */\n      0x01\n        /* \"#utility.yul\":14921:14926   */\n      dup3\n        /* \"#utility.yul\":14917:14930   */\n      add\n        /* \"#utility.yul\":14910:14930   */\n      swap1\n      pop\n        /* \"#utility.yul\":14703:14936   */\n      swap2\n      swap1\n      pop\n      jump\t// out\n        /* \"#utility.yul\":14942:15083   */\n    tag_138:\n        /* \"#utility.yul\":14991:14995   */\n      0x00\n        /* \"#utility.yul\":15014:15017   */\n      dup2\n        /* \"#utility.yul\":15006:15017   */\n      swap1\n      pop\n        /* \"#utility.yul\":15037:15040   */\n      dup2\n        /* \"#utility.yul\":15034:15035   */\n      0x00\n        /* \"#utility.yul\":15027:15041   */\n      mstore\n        /* \"#utility.yul\":15071:15075   */\n      0x20\n        /* \"#utility.yul\":15068:15069   */\n      0x00\n        /* \"#utility.yul\":15058:15076   */\n      keccak256\n        /* \"#utility.yul\":15050:15076   */\n      swap1\n      pop\n        /* \"#utility.yul\":14942:15083   */\n      swap2\n      swap1\n      pop\n      jump\t// out\n        /* \"#utility.yul\":15089:15182   */\n    tag_139:\n        /* \"#utility.yul\":15126:15132   */\n      0x00\n        /* \"#utility.yul\":15173:15175   */\n      0x20\n        /* \"#utility.yul\":15168:15170   */\n      0x1f\n        /* \"#utility.yul\":15161:15166   */\n      dup4\n        /* \"#utility.yul\":15157:15171   */\n      add\n        /* \"#utility.yul\":15153:15176   */\n      div\n        /* \"#utility.yul\":15143:15176   */\n      swap1\n      pop\n        /* \"#utility.yul\":15089:15182   */\n      swap2\n      swap1\n      pop\n      jump\t// out\n        /* \"#utility.yul\":15188:15295   */\n    tag_140:\n        /* \"#utility.yul\":15232:15240   */\n      0x00\n        /* \"#utility.yul\":15282:15287   */\n      dup3\n        /* \"#utility.yul\":15276:15280   */\n      dup3\n        /* \"#utility.yul\":15272:15288   */\n      shl\n        /* \"#utility.yul\":15251:15288   */\n      swap1\n      pop\n        /* \"#utility.yul\":15188:15295   */\n      swap3\n      swap2\n      pop\n      pop\n      jump\t// out\n        /* \"#utility.yul\":15301:15694   */\n    tag_141:\n        /* \"#utility.yul\":15370:15376   */\n      0x00\n        /* \"#utility.yul\":15420:15421   */\n      0x08\n        /* \"#utility.yul\":15408:15418   */\n      dup4\n        /* \"#utility.yul\":15404:15422   */\n      mul\n        /* \"#utility.yul\":15443:15540   */\n      tag_295\n        /* \"#utility.yul\":15473:15539   */\n      0xffffffffffffffffffffffffffffffffffffffffffffffffffffffffffffffff\n        /* \"#utility.yul\":15462:15471   */\n      dup3\n        /* \"#utility.yul\":15443:15540   */\n      tag_140\n      jump\t// in\n    tag_295:\n        /* \"#utility.yul\":15561:15600   */\n      tag_296\n        /* \"#utility.yul\":15591:15599   */\n      dup7\n        /* \"#utility.yul\":15580:15589   */\n      dup4\n        /* \"#utility.yul\":15561:15600   */\n      tag_140\n      jump\t// in\n    tag_296:\n        /* \"#utility.yul\":15549:15600   */\n      swap6\n      pop\n        /* \"#utility.yul\":15633:15637   */\n      dup1\n        /* \"#utility.yul\":15629:15638   */\n      not\n        /* \"#utility.yul\":15622:15627   */\n      dup5\n        /* \"#utility.yul\":15618:15639   */\n      and\n        /* \"#utility.yul\":15609:15639   */\n      swap4\n      pop\n        /* \"#utility.yul\":15682:15686   */\n      dup1\n        /* \"#utility.yul\":15672:15680   */\n      dup7\n        /* \"#utility.yul\":15668:15687   */\n      and\n        /* \"#utility.yul\":15661:15666   */\n      dup5\n        /* \"#utility.yul\":15658:15688   */\n      or\n        /* \"#utility.yul\":15648:15688   */\n      swap3\n      pop\n        /* \"#utility.yul\":15377:15694   */\n      pop\n      pop\n        /* \"#utility.yul\":15301:15694   */\n      swap4\n      swap3\n      pop\n      pop\n      pop\n      jump\t// out\n        /* \"#utility.yul\":15700:15760   */\n    tag_142:\n        /* \"#utility.yul\":15728:15731   */\n      0x00\n        /* \"#utility.yul\":15749:15754   */\n      dup2\n        /* \"#utility.yul\":15742:15754   */\n      swap1\n      pop\n        /* \"#utility.yul\":15700:15760   */\n      swap2\n      swap1\n      pop\n      jump\t// out\n        /* \"#utility.yul\":15766:15908   */\n    tag_143:\n        /* \"#utility.yul\":15816:15825   */\n      0x00\n        /* \"#utility.yul\":15849:15902   */\n      tag_299\n        /* \"#utility.yul\":15867:15901   */\n      tag_300\n        /* \"#utility.yul\":15876:15900   */\n      tag_301\n        /* \"#utility.yul\":15894:15899   */\n      dup5\n        /* \"#utility.yul\":15876:15900   */\n      tag_99\n      jump\t// in\n    tag_301:\n        /* \"#utility.yul\":15867:15901   */\n      tag_142\n      jump\t// in\n    tag_300:\n        /* \"#utility.yul\":15849:15902   */\n      tag_99\n      jump\t// in\n    tag_299:\n        /* \"#utility.yul\":15836:15902   */\n      swap1\n      pop\n        /* \"#utility.yul\":15766:15908   */\n      swap2\n      swap1\n      pop\n      jump\t// out\n        /* \"#utility.yul\":15914:15989   */\n    tag_144:\n        /* \"#utility.yul\":15957:15960   */\n      0x00\n        /* \"#utility.yul\":15978:15983   */\n      dup2\n        /* \"#utility.yul\":15971:15983   */\n      swap1\n      pop\n        /* \"#utility.yul\":15914:15989   */\n      swap2\n      swap1\n      pop\n      jump\t// out\n        /* \"#utility.yul\":15995:16264   */\n    tag_145:\n        /* \"#utility.yul\":16105:16144   */\n      tag_304\n        /* \"#utility.yul\":16136:16143   */\n      dup4\n        /* \"#utility.yul\":16105:16144   */\n      tag_143\n      jump\t// in\n    tag_304:\n        /* \"#utility.yul\":16166:16257   */\n      tag_305\n        /* \"#utility.yul\":16215:16256   */\n      tag_306\n        /* \"#utility.yul\":16239:16255   */\n      dup3\n        /* \"#utility.yul\":16215:16256   */\n      tag_144\n      jump\t// in\n    tag_306:\n        /* \"#utility.yul\":16207:16213   */\n      dup5\n        /* \"#utility.yul\":16200:16204   */\n      dup5\n        /* \"#utility.yul\":16194:16205   */\n      sload\n        /* \"#utility.yul\":16166:16257   */\n      tag_141\n      jump\t// in\n    tag_305:\n        /* \"#utility.yul\":16160:16164   */\n      dup3\n        /* \"#utility.yul\":16153:16258   */\n      sstore\n        /* \"#utility.yul\":16071:16264   */\n      pop\n        /* \"#utility.yul\":15995:16264   */\n      pop\n      pop\n      pop\n      jump\t// out\n        /* \"#utility.yul\":16270:16343   */\n    tag_146:\n        /* \"#utility.yul\":16315:16318   */\n      0x00\n        /* \"#utility.yul\":16270:16343   */\n      swap1\n      jump\t// out\n        /* \"#utility.yul\":16349:16538   */\n    tag_147:\n        /* \"#utility.yul\":16426:16458   */\n      tag_309\n      tag_146\n      jump\t// in\n    tag_309:\n        /* \"#utility.yul\":16467:16532   */\n      tag_310\n        /* \"#utility.yul\":16525:16531   */\n      dup2\n        /* \"#utility.yul\":16517:16523   */\n      dup5\n        /* \"#utility.yul\":16511:16515   */\n      dup5\n        /* \"#utility.yul\":16467:16532   */\n      tag_145\n      jump\t// in\n    tag_310:\n        /* \"#utility.yul\":16402:16538   */\n      pop\n        /* \"#utility.yul\":16349:16538   */\n      pop\n      pop\n      jump\t// out\n        /* \"#utility.yul\":16544:16730   */\n    tag_148:\n        /* \"#utility.yul\":16604:16724   */\n    tag_312:\n        /* \"#utility.yul\":16621:16624   */\n      dup2\n        /* \"#utility.yul\":16614:16619   */\n      dup2\n        /* \"#utility.yul\":16611:16625   */\n      lt\n        /* \"#utility.yul\":16604:16724   */\n      iszero\n      tag_314\n      jumpi\n        /* \"#utility.yul\":16675:16714   */\n      tag_315\n        /* \"#utility.yul\":16712:16713   */\n      0x00\n        /* \"#utility.yul\":16705:16710   */\n      dup3\n        /* \"#utility.yul\":16675:16714   */\n      tag_147\n      jump\t// in\n    tag_315:\n        /* \"#utility.yul\":16648:16649   */\n      0x01\n        /* \"#utility.yul\":16641:16646   */\n      dup2\n        /* \"#utility.yul\":16637:16650   */\n      add\n        /* \"#utility.yul\":16628:16650   */\n      swap1\n      pop\n        /* \"#utility.yul\":16604:16724   */\n      jump(tag_312)\n    tag_314:\n        /* \"#utility.yul\":16544:16730   */\n      pop\n      pop\n      jump\t// out\n        /* \"#utility.yul\":16736:17279   */\n    tag_149:\n        /* \"#utility.yul\":16837:16839   */\n      0x1f\n        /* \"#utility.yul\":16832:16835   */\n      dup3\n        /* \"#utility.yul\":16829:16840   */\n      gt\n        /* \"#utility.yul\":16826:17272   */\n      iszero\n      tag_317\n      jumpi\n        /* \"#utility.yul\":16871:16909   */\n      tag_318\n        /* \"#utility.yul\":16903:16908   */\n      dup2\n        /* \"#utility.yul\":16871:16909   */\n      tag_138\n      jump\t// in\n    tag_318:\n        /* \"#utility.yul\":16955:16984   */\n      tag_319\n        /* \"#utility.yul\":16973:16983   */\n      dup5\n        /* \"#utility.yul\":16955:16984   */\n      tag_139\n      jump\t// in\n    tag_319:\n        /* \"#utility.yul\":16945:16953   */\n      dup2\n        /* \"#utility.yul\":16941:16985   */\n      add\n        /* \"#utility.yul\":17138:17140   */\n      0x20\n        /* \"#utility.yul\":17126:17136   */\n      dup6\n        /* \"#utility.yul\":17123:17141   */\n      lt\n        /* \"#utility.yul\":17120:17169   */\n      iszero\n      tag_320\n      jumpi\n        /* \"#utility.yul\":17159:17167   */\n      dup2\n        /* \"#utility.yul\":17144:17167   */\n      swap1\n      pop\n        /* \"#utility.yul\":17120:17169   */\n    tag_320:\n        /* \"#utility.yul\":17182:17262   */\n      tag_321\n        /* \"#utility.yul\":17238:17260   */\n      tag_322\n        /* \"#utility.yul\":17256:17259   */\n      dup6\n        /* \"#utility.yul\":17238:17260   */\n      tag_139\n      jump\t// in\n    tag_322:\n        /* \"#utility.yul\":17228:17236   */\n      dup4\n        /* \"#utility.yul\":17224:17261   */\n      add\n        /* \"#utility.yul\":17211:17222   */\n      dup3\n        /* \"#utility.yul\":17182:17262   */\n      tag_148\n      jump\t// in\n    tag_321:\n        /* \"#utility.yul\":16841:17272   */\n      pop\n      pop\n        /* \"#utility.yul\":16826:17272   */\n    tag_317:\n        /* \"#utility.yul\":16736:17279   */\n      pop\n      pop\n      pop\n      jump\t// out\n        /* \"#utility.yul\":17285:17402   */\n    tag_150:\n        /* \"#utility.yul\":17339:17347   */\n      0x00\n        /* \"#utility.yul\":17389:17394   */\n      dup3\n        /* \"#utility.yul\":17383:17387   */\n      dup3\n        /* \"#utility.yul\":17379:17395   */\n      shr\n        /* \"#utility.yul\":17358:17395   */\n      swap1\n      pop\n        /* \"#utility.yul\":17285:17402   */\n      swap3\n      swap2\n      pop\n      pop\n      jump\t// out\n        /* \"#utility.yul\":17408:17577   */\n    tag_151:\n        /* \"#utility.yul\":17452:17458   */\n      0x00\n        /* \"#utility.yul\":17485:17536   */\n      tag_325\n        /* \"#utility.yul\":17533:17534   */\n      0x00\n        /* \"#utility.yul\":17529:17535   */\n      not\n        /* \"#utility.yul\":17521:17526   */\n      dup5\n        /* \"#utility.yul\":17518:17519   */\n      0x08\n        /* \"#utility.yul\":17514:17527   */\n      mul\n        /* \"#utility.yul\":17485:17536   */\n      tag_150\n      jump\t// in\n    tag_325:\n        /* \"#utility.yul\":17481:17537   */\n      not\n        /* \"#utility.yul\":17566:17570   */\n      dup1\n        /* \"#utility.yul\":17560:17564   */\n      dup4\n        /* \"#utility.yul\":17556:17571   */\n      and\n        /* \"#utility.yul\":17546:17571   */\n      swap2\n      pop\n        /* \"#utility.yul\":17459:17577   */\n      pop\n        /* \"#utility.yul\":17408:17577   */\n      swap3\n      swap2\n      pop\n      pop\n      jump\t// out\n        /* \"#utility.yul\":17582:17877   */\n    tag_152:\n        /* \"#utility.yul\":17658:17662   */\n      0x00\n        /* \"#utility.yul\":17804:17833   */\n      tag_327\n        /* \"#utility.yul\":17829:17832   */\n      dup4\n        /* \"#utility.yul\":17823:17827   */\n      dup4\n        /* \"#utility.yul\":17804:17833   */\n      tag_151\n      jump\t// in\n    tag_327:\n        /* \"#utility.yul\":17796:17833   */\n      swap2\n      pop\n        /* \"#utility.yul\":17866:17869   */\n      dup3\n        /* \"#utility.yul\":17863:17864   */\n      0x02\n        /* \"#utility.yul\":17859:17870   */\n      mul\n        /* \"#utility.yul\":17853:17857   */\n      dup3\n        /* \"#utility.yul\":17850:17871   */\n      or\n        /* \"#utility.yul\":17842:17871   */\n      swap1\n      pop\n        /* \"#utility.yul\":17582:17877   */\n      swap3\n      swap2\n      pop\n      pop\n      jump\t// out\n        /* \"#utility.yul\":17882:19277   */\n    tag_94:\n        /* \"#utility.yul\":17999:18036   */\n      tag_329\n        /* \"#utility.yul\":18032:18035   */\n      dup3\n        /* \"#utility.yul\":17999:18036   */\n      tag_109\n      jump\t// in\n    tag_329:\n        /* \"#utility.yul\":18101:18119   */\n      0xffffffffffffffff\n        /* \"#utility.yul\":18093:18099   */\n      dup2\n        /* \"#utility.yul\":18090:18120   */\n      gt\n        /* \"#utility.yul\":18087:18143   */\n      iszero\n      tag_330\n      jumpi\n        /* \"#utility.yul\":18123:18141   */\n      tag_331\n      tag_58\n      jump\t// in\n    tag_331:\n        /* \"#utility.yul\":18087:18143   */\n    tag_330:\n        /* \"#utility.yul\":18167:18205   */\n      tag_332\n        /* \"#utility.yul\":18199:18203   */\n      dup3\n        /* \"#utility.yul\":18193:18204   */\n      sload\n        /* \"#utility.yul\":18167:18205   */\n      tag_67\n      jump\t// in\n    tag_332:\n        /* \"#utility.yul\":18252:18319   */\n      tag_333\n        /* \"#utility.yul\":18312:18318   */\n      dup3\n        /* \"#utility.yul\":18304:18310   */\n      dup3\n        /* \"#utility.yul\":18298:18302   */\n      dup6\n        /* \"#utility.yul\":18252:18319   */\n      tag_149\n      jump\t// in\n    tag_333:\n        /* \"#utility.yul\":18346:18347   */\n      0x00\n        /* \"#utility.yul\":18370:18374   */\n      0x20\n        /* \"#utility.yul\":18357:18374   */\n      swap1\n      pop\n        /* \"#utility.yul\":18402:18404   */\n      0x1f\n        /* \"#utility.yul\":18394:18400   */\n      dup4\n        /* \"#utility.yul\":18391:18405   */\n      gt\n        /* \"#utility.yul\":18419:18420   */\n      0x01\n        /* \"#utility.yul\":18414:19032   */\n      dup2\n      eq\n      tag_335\n      jumpi\n        /* \"#utility.yul\":19076:19077   */\n      0x00\n        /* \"#utility.yul\":19093:19099   */\n      dup5\n        /* \"#utility.yul\":19090:19167   */\n      iszero\n      tag_336\n      jumpi\n        /* \"#utility.yul\":19142:19151   */\n      dup3\n        /* \"#utility.yul\":19137:19140   */\n      dup8\n        /* \"#utility.yul\":19133:19152   */\n      add\n        /* \"#utility.yul\":19127:19153   */\n      mload\n        /* \"#utility.yul\":19118:19153   */\n      swap1\n      pop\n        /* \"#utility.yul\":19090:19167   */\n    tag_336:\n        /* \"#utility.yul\":19193:19260   */\n      tag_337\n        /* \"#utility.yul\":19253:19259   */\n      dup6\n        /* \"#utility.yul\":19246:19251   */\n      dup3\n        /* \"#utility.yul\":19193:19260   */\n      tag_152\n      jump\t// in\n    tag_337:\n        /* \"#utility.yul\":19187:19191   */\n      dup7\n        /* \"#utility.yul\":19180:19261   */\n      sstore\n        /* \"#utility.yul\":19049:19271   */\n      pop\n        /* \"#utility.yul\":18384:19271   */\n      jump(tag_334)\n        /* \"#utility.yul\":18414:19032   */\n    tag_335:\n        /* \"#utility.yul\":18466:18470   */\n      0x1f\n        /* \"#utility.yul\":18462:18471   */\n      not\n        /* \"#utility.yul\":18454:18460   */\n      dup5\n        /* \"#utility.yul\":18450:18472   */\n      and\n        /* \"#utility.yul\":18500:18537   */\n      tag_338\n        /* \"#utility.yul\":18532:18536   */\n      dup7\n        /* \"#utility.yul\":18500:18537   */\n      tag_138\n      jump\t// in\n    tag_338:\n        /* \"#utility.yul\":18559:18560   */\n      0x00\n        /* \"#utility.yul\":18573:18781   */\n    tag_339:\n        /* \"#utility.yul\":18587:18594   */\n      dup3\n        /* \"#utility.yul\":18584:18585   */\n      dup2\n        /* \"#utility.yul\":18581:18595   */\n      lt\n        /* \"#utility.yul\":18573:18781   */\n      iszero\n      tag_341\n      jumpi\n        /* \"#utility.yul\":18666:18675   */\n      dup5\n        /* \"#utility.yul\":18661:18664   */\n      dup10\n        /* \"#utility.yul\":18657:18676   */\n      add\n        /* \"#utility.yul\":18651:18677   */\n      mload\n        /* \"#utility.yul\":18643:18649   */\n      dup3\n        /* \"#utility.yul\":18636:18678   */\n      sstore\n        /* \"#utility.yul\":18717:18718   */\n      0x01\n        /* \"#utility.yul\":18709:18715   */\n      dup3\n        /* \"#utility.yul\":18705:18719   */\n      add\n        /* \"#utility.yul\":18695:18719   */\n      swap2\n      pop\n        /* \"#utility.yul\":18764:18766   */\n      0x20\n        /* \"#utility.yul\":18753:18762   */\n      dup6\n        /* \"#utility.yul\":18749:18767   */\n      add\n        /* \"#utility.yul\":18736:18767   */\n      swap5\n      pop\n        /* \"#utility.yul\":18610:18614   */\n      0x20\n        /* \"#utility.yul\":18607:18608   */\n      dup2\n        /* \"#utility.yul\":18603:18615   */\n      add\n        /* \"#utility.yul\":18598:18615   */\n      swap1\n      pop\n        /* \"#utility.yul\":18573:18781   */\n      jump(tag_339)\n    tag_341:\n        /* \"#utility.yul\":18809:18815   */\n      dup7\n        /* \"#utility.yul\":18800:18807   */\n      dup4\n        /* \"#utility.yul\":18797:18816   */\n      lt\n        /* \"#utility.yul\":18794:18973   */\n      iszero\n      tag_342\n      jumpi\n        /* \"#utility.yul\":18867:18876   */\n      dup5\n        /* \"#utility.yul\":18862:18865   */\n      dup10\n        /* \"#utility.yul\":18858:18877   */\n      add\n        /* \"#utility.yul\":18852:18878   */\n      mload\n        /* \"#utility.yul\":18910:18958   */\n      tag_343\n        /* \"#utility.yul\":18952:18956   */\n      0x1f\n        /* \"#utility.yul\":18944:18950   */\n      dup10\n        /* \"#utility.yul\":18940:18957   */\n      and\n        /* \"#utility.yul\":18929:18938   */\n      dup3\n        /* \"#utility.yul\":18910:18958   */\n      tag_151\n      jump\t// in\n    tag_343:\n        /* \"#utility.yul\":18902:18908   */\n      dup4\n        /* \"#utility.yul\":18895:18959   */\n      sstore\n        /* \"#utility.yul\":18817:18973   */\n      pop\n        /* \"#utility.yul\":18794:18973   */\n    tag_342:\n        /* \"#utility.yul\":19019:19020   */\n      0x01\n        /* \"#utility.yul\":19015:19016   */\n      0x02\n        /* \"#utility.yul\":19007:19013   */\n      dup9\n        /* \"#utility.yul\":19003:19017   */\n      mul\n        /* \"#utility.yul\":18999:19021   */\n      add\n        /* \"#utility.yul\":18993:18997   */\n      dup9\n        /* \"#utility.yul\":18986:19022   */\n      sstore\n        /* \"#utility.yul\":18421:19032   */\n      pop\n      pop\n      pop\n        /* \"#utility.yul\":18384:19271   */\n    tag_334:\n      pop\n        /* \"#utility.yul\":17974:19277   */\n      pop\n      pop\n      pop\n        /* \"#utility.yul\":17882:19277   */\n      pop\n      pop\n      jump\t// out\n\n    auxdata: 0xa26469706673582212207eba5f53a8aa2a38d3324c544cf0fad4fc5632148299d12e59f94e0f623a5a4064736f6c634300081a0033\n}\n",
				"bytecode": {
					"linkReferences": {},
					"object": "6080604052348015600e575f80fd5b506112bc8061001c5f395ff3fe608060405260043610610054575f3560e01c806357c90de5146100585780636891939d146100745780636bfb0d01146100b1578063b18e15bd146100db578063bfb231d214610105578063e03fd74c14610144575b5f80fd5b610072600480360381019061006d9190610904565b61016c565b005b34801561007f575f80fd5b5061009a60048036038101906100959190610942565b61036d565b6040516100a89291906109bb565b60405180910390f35b3480156100bc575f80fd5b506100c561040f565b6040516100d291906109e2565b60405180910390f35b3480156100e6575f80fd5b506100ef610415565b6040516100fc9190610bbc565b60405180910390f35b348015610110575f80fd5b5061012b60048036038101906101269190610942565b61064d565b60405161013b9493929190610c33565b60405180910390f35b34801561014f575f80fd5b5061016a60048036038101906101659190610db0565b6107a3565b005b5f8211801561017d57506001548211155b6101bc576040517f08c379a00000000000000000000000000000000000000000000000000000000081526004016101b390610e70565b60405180910390fd5b5f808381526020019081526020015f20600301548111610211576040517f08c379a000000000000000000000000000000000000000000000000000000000815260040161020890610efe565b60405180910390fd5b5f73ffffffffffffffffffffffffffffffffffffffff165f808481526020019081526020015f206002015f9054906101000a900473ffffffffffffffffffffffffffffffffffffffff1673ffffffffffffffffffffffffffffffffffffffff1614610300575f808381526020019081526020015f206002015f9054906101000a900473ffffffffffffffffffffffffffffffffffffffff1673ffffffffffffffffffffffffffffffffffffffff166108fc5f808581526020019081526020015f206003015490811502906040515f60405180830381858888f193505050501580156102fe573d5f803e3d5ffd5b505b335f808481526020019081526020015f206002015f6101000a81548173ffffffffffffffffffffffffffffffffffffffff021916908373ffffffffffffffffffffffffffffffffffffffff160217905550805f808481526020019081526020015f20600301819055505050565b5f805f8311801561038057506001548311155b6103bf576040517f08c379a00000000000000000000000000000000000000000000000000000000081526004016103b690610e70565b60405180910390fd5b5f808481526020019081526020015f206002015f9054906101000a900473ffffffffffffffffffffffffffffffffffffffff165f808581526020019081526020015f206003015491509150915091565b60015481565b60605f60015467ffffffffffffffff81111561043457610433610c8c565b5b60405190808252806020026020018201604052801561046d57816020015b61045a610884565b8152602001906001900390816104525790505b5090505f5b600154811015610645575f805f8381526020019081526020015f206040518060800160405290815f820180546104a790610f49565b80601f01602080910402602001604051908101604052809291908181526020018280546104d390610f49565b801561051e5780601f106104f55761010080835404028352916020019161051e565b820191905f5260205f20905b81548152906001019060200180831161050157829003601f168201915b5050505050815260200160018201805461053790610f49565b80601f016020809104026020016040519081016040528092919081815260200182805461056390610f49565b80156105ae5780601f10610585576101008083540402835291602001916105ae565b820191905f5260205f20905b81548152906001019060200180831161059157829003601f168201915b50505050508152602001600282015f9054906101000a900473ffffffffffffffffffffffffffffffffffffffff1673ffffffffffffffffffffffffffffffffffffffff1673ffffffffffffffffffffffffffffffffffffffff16815260200160038201548152505090508083838151811061062c5761062b610f79565b5b6020026020010181905250508080600101915050610472565b508091505090565b5f602052805f5260405f205f91509050805f01805461066b90610f49565b80601f016020809104026020016040519081016040528092919081815260200182805461069790610f49565b80156106e25780601f106106b9576101008083540402835291602001916106e2565b820191905f5260205f20905b8154815290600101906020018083116106c557829003601f168201915b5050505050908060010180546106f790610f49565b80601f016020809104026020016040519081016040528092919081815260200182805461072390610f49565b801561076e5780601f106107455761010080835404028352916020019161076e565b820191905f5260205f20905b81548152906001019060200180831161075157829003601f168201915b505050505090806002015f9054906101000a900473ffffffffffffffffffffffffffffffffffffffff16908060030154905084565b60015f8154809291906107b590610fd3565b919050555060405180608001604052808381526020018281526020013373ffffffffffffffffffffffffffffffffffffffff1681526020015f8152505f8060015481526020019081526020015f205f820151815f01908161081691906111b7565b50602082015181600101908161082c91906111b7565b506040820151816002015f6101000a81548173ffffffffffffffffffffffffffffffffffffffff021916908373ffffffffffffffffffffffffffffffffffffffff160217905550606082015181600301559050505050565b604051806080016040528060608152602001606081526020015f73ffffffffffffffffffffffffffffffffffffffff1681526020015f81525090565b5f604051905090565b5f80fd5b5f80fd5b5f819050919050565b6108e3816108d1565b81146108ed575f80fd5b50565b5f813590506108fe816108da565b92915050565b5f806040838503121561091a576109196108c9565b5b5f610927858286016108f0565b9250506020610938858286016108f0565b9150509250929050565b5f60208284031215610957576109566108c9565b5b5f610964848285016108f0565b91505092915050565b5f73ffffffffffffffffffffffffffffffffffffffff82169050919050565b5f6109968261096d565b9050919050565b6109a68161098c565b82525050565b6109b5816108d1565b82525050565b5f6040820190506109ce5f83018561099d565b6109db60208301846109ac565b9392505050565b5f6020820190506109f55f8301846109ac565b92915050565b5f81519050919050565b5f82825260208201905092915050565b5f819050602082019050919050565b5f81519050919050565b5f82825260208201905092915050565b8281835e5f83830152505050565b5f601f19601f8301169050919050565b5f610a6682610a24565b610a708185610a2e565b9350610a80818560208601610a3e565b610a8981610a4c565b840191505092915050565b5f610a9e8261096d565b9050919050565b610aae81610a94565b82525050565b610abd816108d1565b82525050565b5f608083015f8301518482035f860152610add8282610a5c565b91505060208301518482036020860152610af78282610a5c565b9150506040830151610b0c6040860182610aa5565b506060830151610b1f6060860182610ab4565b508091505092915050565b5f610b358383610ac3565b905092915050565b5f602082019050919050565b5f610b53826109fb565b610b5d8185610a05565b935083602082028501610b6f85610a15565b805f5b85811015610baa5784840389528151610b8b8582610b2a565b9450610b9683610b3d565b925060208a01995050600181019050610b72565b50829750879550505050505092915050565b5f6020820190508181035f830152610bd48184610b49565b905092915050565b5f82825260208201905092915050565b5f610bf682610a24565b610c008185610bdc565b9350610c10818560208601610a3e565b610c1981610a4c565b840191505092915050565b610c2d81610a94565b82525050565b5f6080820190508181035f830152610c4b8187610bec565b90508181036020830152610c5f8186610bec565b9050610c6e6040830185610c24565b610c7b60608301846109ac565b95945050505050565b5f80fd5b5f80fd5b7f4e487b71000000000000000000000000000000000000000000000000000000005f52604160045260245ffd5b610cc282610a4c565b810181811067ffffffffffffffff82111715610ce157610ce0610c8c565b5b80604052505050565b5f610cf36108c0565b9050610cff8282610cb9565b919050565b5f67ffffffffffffffff821115610d1e57610d1d610c8c565b5b610d2782610a4c565b9050602081019050919050565b828183375f83830152505050565b5f610d54610d4f84610d04565b610cea565b905082815260208101848484011115610d7057610d6f610c88565b5b610d7b848285610d34565b509392505050565b5f82601f830112610d9757610d96610c84565b5b8135610da7848260208601610d42565b91505092915050565b5f8060408385031215610dc657610dc56108c9565b5b5f83013567ffffffffffffffff811115610de357610de26108cd565b5b610def85828601610d83565b925050602083013567ffffffffffffffff811115610e1057610e0f6108cd565b5b610e1c85828601610d83565b9150509250929050565b7f496e76616c6964206974656d20494400000000000000000000000000000000005f82015250565b5f610e5a600f83610bdc565b9150610e6582610e26565b602082019050919050565b5f6020820190508181035f830152610e8781610e4e565b9050919050565b7f42696420616d6f756e74206d75737420626520686967686572207468616e20635f8201527f757272656e742068696768657374206269640000000000000000000000000000602082015250565b5f610ee8603283610bdc565b9150610ef382610e8e565b604082019050919050565b5f6020820190508181035f830152610f1581610edc565b9050919050565b7f4e487b71000000000000000000000000000000000000000000000000000000005f52602260045260245ffd5b5f6002820490506001821680610f6057607f821691505b602082108103610f7357610f72610f1c565b5b50919050565b7f4e487b71000000000000000000000000000000000000000000000000000000005f52603260045260245ffd5b7f4e487b71000000000000000000000000000000000000000000000000000000005f52601160045260245ffd5b5f610fdd826108d1565b91507fffffffffffffffffffffffffffffffffffffffffffffffffffffffffffffffff820361100f5761100e610fa6565b5b600182019050919050565b5f819050815f5260205f209050919050565b5f6020601f8301049050919050565b5f82821b905092915050565b5f600883026110767fffffffffffffffffffffffffffffffffffffffffffffffffffffffffffffffff8261103b565b611080868361103b565b95508019841693508086168417925050509392505050565b5f819050919050565b5f6110bb6110b66110b1846108d1565b611098565b6108d1565b9050919050565b5f819050919050565b6110d4836110a1565b6110e86110e0826110c2565b848454611047565b825550505050565b5f90565b6110fc6110f0565b6111078184846110cb565b505050565b5b8181101561112a5761111f5f826110f4565b60018101905061110d565b5050565b601f82111561116f576111408161101a565b6111498461102c565b81016020851015611158578190505b61116c6111648561102c565b83018261110c565b50505b505050565b5f82821c905092915050565b5f61118f5f1984600802611174565b1980831691505092915050565b5f6111a78383611180565b9150826002028217905092915050565b6111c082610a24565b67ffffffffffffffff8111156111d9576111d8610c8c565b5b6111e38254610f49565b6111ee82828561112e565b5f60209050601f83116001811461121f575f841561120d578287015190505b611217858261119c565b86555061127e565b601f19841661122d8661101a565b5f5b828110156112545784890151825560018201915060208501945060208101905061122f565b86831015611271578489015161126d601f891682611180565b8355505b6001600288020188555050505b50505050505056fea26469706673582212207eba5f53a8aa2a38d3324c544cf0fad4fc5632148299d12e59f94e0f623a5a4064736f6c634300081a0033",
					"opcodes": "PUSH1 0x80 PUSH1 0x40 MSTORE CALLVALUE DUP1 ISZERO PUSH1 0xE JUMPI PUSH0 DUP1 REVERT JUMPDEST POP PUSH2 0x12BC DUP1 PUSH2 0x1C PUSH0 CODECOPY PUSH0 RETURN INVALID PUSH1 0x80 PUSH1 0x40 MSTORE PUSH1 0x4 CALLDATASIZE LT PUSH2 0x54 JUMPI PUSH0 CALLDATALOAD PUSH1 0xE0 SHR DUP1 PUSH4 0x57C90DE5 EQ PUSH2 0x58 JUMPI DUP1 PUSH4 0x6891939D EQ PUSH2 0x74 JUMPI DUP1 PUSH4 0x6BFB0D01 EQ PUSH2 0xB1 JUMPI DUP1 PUSH4 0xB18E15BD EQ PUSH2 0xDB JUMPI DUP1 PUSH4 0xBFB231D2 EQ PUSH2 0x105 JUMPI DUP1 PUSH4 0xE03FD74C EQ PUSH2 0x144 JUMPI JUMPDEST PUSH0 DUP1 REVERT JUMPDEST PUSH2 0x72 PUSH1 0x4 DUP1 CALLDATASIZE SUB DUP2 ADD SWAP1 PUSH2 0x6D SWAP2 SWAP1 PUSH2 0x904 JUMP JUMPDEST PUSH2 0x16C JUMP JUMPDEST STOP JUMPDEST CALLVALUE DUP1 ISZERO PUSH2 0x7F JUMPI PUSH0 DUP1 REVERT JUMPDEST POP PUSH2 0x9A PUSH1 0x4 DUP1 CALLDATASIZE SUB DUP2 ADD SWAP1 PUSH2 0x95 SWAP2 SWAP1 PUSH2 0x942 JUMP JUMPDEST PUSH2 0x36D JUMP JUMPDEST PUSH1 0x40 MLOAD PUSH2 0xA8 SWAP3 SWAP2 SWAP1 PUSH2 0x9BB JUMP JUMPDEST PUSH1 0x40 MLOAD DUP1 SWAP2 SUB SWAP1 RETURN JUMPDEST CALLVALUE DUP1 ISZERO PUSH2 0xBC JUMPI PUSH0 DUP1 REVERT JUMPDEST POP PUSH2 0xC5 PUSH2 0x40F JUMP JUMPDEST PUSH1 0x40 MLOAD PUSH2 0xD2 SWAP2 SWAP1 PUSH2 0x9E2 JUMP JUMPDEST PUSH1 0x40 MLOAD DUP1 SWAP2 SUB SWAP1 RETURN JUMPDEST CALLVALUE DUP1 ISZERO PUSH2 0xE6 JUMPI PUSH0 DUP1 REVERT JUMPDEST POP PUSH2 0xEF PUSH2 0x415 JUMP JUMPDEST PUSH1 0x40 MLOAD PUSH2 0xFC SWAP2 SWAP1 PUSH2 0xBBC JUMP JUMPDEST PUSH1 0x40 MLOAD DUP1 SWAP2 SUB SWAP1 RETURN JUMPDEST CALLVALUE DUP1 ISZERO PUSH2 0x110 JUMPI PUSH0 DUP1 REVERT JUMPDEST POP PUSH2 0x12B PUSH1 0x4 DUP1 CALLDATASIZE SUB DUP2 ADD SWAP1 PUSH2 0x126 SWAP2 SWAP1 PUSH2 0x942 JUMP JUMPDEST PUSH2 0x64D JUMP JUMPDEST PUSH1 0x40 MLOAD PUSH2 0x13B SWAP5 SWAP4 SWAP3 SWAP2 SWAP1 PUSH2 0xC33 JUMP JUMPDEST PUSH1 0x40 MLOAD DUP1 SWAP2 SUB SWAP1 RETURN JUMPDEST CALLVALUE DUP1 ISZERO PUSH2 0x14F JUMPI PUSH0 DUP1 REVERT JUMPDEST POP PUSH2 0x16A PUSH1 0x4 DUP1 CALLDATASIZE SUB DUP2 ADD SWAP1 PUSH2 0x165 SWAP2 SWAP1 PUSH2 0xDB0 JUMP JUMPDEST PUSH2 0x7A3 JUMP JUMPDEST STOP JUMPDEST PUSH0 DUP3 GT DUP1 ISZERO PUSH2 0x17D JUMPI POP PUSH1 0x1 SLOAD DUP3 GT ISZERO JUMPDEST PUSH2 0x1BC JUMPI PUSH1 0x40 MLOAD PUSH32 0x8C379A000000000000000000000000000000000000000000000000000000000 DUP2 MSTORE PUSH1 0x4 ADD PUSH2 0x1B3 SWAP1 PUSH2 0xE70 JUMP JUMPDEST PUSH1 0x40 MLOAD DUP1 SWAP2 SUB SWAP1 REVERT JUMPDEST PUSH0 DUP1 DUP4 DUP2 MSTORE PUSH1 0x20 ADD SWAP1 DUP2 MSTORE PUSH1 0x20 ADD PUSH0 KECCAK256 PUSH1 0x3 ADD SLOAD DUP2 GT PUSH2 0x211 JUMPI PUSH1 0x40 MLOAD PUSH32 0x8C379A000000000000000000000000000000000000000000000000000000000 DUP2 MSTORE PUSH1 0x4 ADD PUSH2 0x208 SWAP1 PUSH2 0xEFE JUMP JUMPDEST PUSH1 0x40 MLOAD DUP1 SWAP2 SUB SWAP1 REVERT JUMPDEST PUSH0 PUSH20 0xFFFFFFFFFFFFFFFFFFFFFFFFFFFFFFFFFFFFFFFF AND PUSH0 DUP1 DUP5 DUP2 MSTORE PUSH1 0x20 ADD SWAP1 DUP2 MSTORE PUSH1 0x20 ADD PUSH0 KECCAK256 PUSH1 0x2 ADD PUSH0 SWAP1 SLOAD SWAP1 PUSH2 0x100 EXP SWAP1 DIV PUSH20 0xFFFFFFFFFFFFFFFFFFFFFFFFFFFFFFFFFFFFFFFF AND PUSH20 0xFFFFFFFFFFFFFFFFFFFFFFFFFFFFFFFFFFFFFFFF AND EQ PUSH2 0x300 JUMPI PUSH0 DUP1 DUP4 DUP2 MSTORE PUSH1 0x20 ADD SWAP1 DUP2 MSTORE PUSH1 0x20 ADD PUSH0 KECCAK256 PUSH1 0x2 ADD PUSH0 SWAP1 SLOAD SWAP1 PUSH2 0x100 EXP SWAP1 DIV PUSH20 0xFFFFFFFFFFFFFFFFFFFFFFFFFFFFFFFFFFFFFFFF AND PUSH20 0xFFFFFFFFFFFFFFFFFFFFFFFFFFFFFFFFFFFFFFFF AND PUSH2 0x8FC PUSH0 DUP1 DUP6 DUP2 MSTORE PUSH1 0x20 ADD SWAP1 DUP2 MSTORE PUSH1 0x20 ADD PUSH0 KECCAK256 PUSH1 0x3 ADD SLOAD SWAP1 DUP2 ISZERO MUL SWAP1 PUSH1 0x40 MLOAD PUSH0 PUSH1 0x40 MLOAD DUP1 DUP4 SUB DUP2 DUP6 DUP9 DUP9 CALL SWAP4 POP POP POP POP ISZERO DUP1 ISZERO PUSH2 0x2FE JUMPI RETURNDATASIZE PUSH0 DUP1 RETURNDATACOPY RETURNDATASIZE PUSH0 REVERT JUMPDEST POP JUMPDEST CALLER PUSH0 DUP1 DUP5 DUP2 MSTORE PUSH1 0x20 ADD SWAP1 DUP2 MSTORE PUSH1 0x20 ADD PUSH0 KECCAK256 PUSH1 0x2 ADD PUSH0 PUSH2 0x100 EXP DUP2 SLOAD DUP2 PUSH20 0xFFFFFFFFFFFFFFFFFFFFFFFFFFFFFFFFFFFFFFFF MUL NOT AND SWAP1 DUP4 PUSH20 0xFFFFFFFFFFFFFFFFFFFFFFFFFFFFFFFFFFFFFFFF AND MUL OR SWAP1 SSTORE POP DUP1 PUSH0 DUP1 DUP5 DUP2 MSTORE PUSH1 0x20 ADD SWAP1 DUP2 MSTORE PUSH1 0x20 ADD PUSH0 KECCAK256 PUSH1 0x3 ADD DUP2 SWAP1 SSTORE POP POP POP JUMP JUMPDEST PUSH0 DUP1 PUSH0 DUP4 GT DUP1 ISZERO PUSH2 0x380 JUMPI POP PUSH1 0x1 SLOAD DUP4 GT ISZERO JUMPDEST PUSH2 0x3BF JUMPI PUSH1 0x40 MLOAD PUSH32 0x8C379A000000000000000000000000000000000000000000000000000000000 DUP2 MSTORE PUSH1 0x4 ADD PUSH2 0x3B6 SWAP1 PUSH2 0xE70 JUMP JUMPDEST PUSH1 0x40 MLOAD DUP1 SWAP2 SUB SWAP1 REVERT JUMPDEST PUSH0 DUP1 DUP5 DUP2 MSTORE PUSH1 0x20 ADD SWAP1 DUP2 MSTORE PUSH1 0x20 ADD PUSH0 KECCAK256 PUSH1 0x2 ADD PUSH0 SWAP1 SLOAD SWAP1 PUSH2 0x100 EXP SWAP1 DIV PUSH20 0xFFFFFFFFFFFFFFFFFFFFFFFFFFFFFFFFFFFFFFFF AND PUSH0 DUP1 DUP6 DUP2 MSTORE PUSH1 0x20 ADD SWAP1 DUP2 MSTORE PUSH1 0x20 ADD PUSH0 KECCAK256 PUSH1 0x3 ADD SLOAD SWAP2 POP SWAP2 POP SWAP2 POP SWAP2 JUMP JUMPDEST PUSH1 0x1 SLOAD DUP2 JUMP JUMPDEST PUSH1 0x60 PUSH0 PUSH1 0x1 SLOAD PUSH8 0xFFFFFFFFFFFFFFFF DUP2 GT ISZERO PUSH2 0x434 JUMPI PUSH2 0x433 PUSH2 0xC8C JUMP JUMPDEST JUMPDEST PUSH1 0x40 MLOAD SWAP1 DUP1 DUP3 MSTORE DUP1 PUSH1 0x20 MUL PUSH1 0x20 ADD DUP3 ADD PUSH1 0x40 MSTORE DUP1 ISZERO PUSH2 0x46D JUMPI DUP2 PUSH1 0x20 ADD JUMPDEST PUSH2 0x45A PUSH2 0x884 JUMP JUMPDEST DUP2 MSTORE PUSH1 0x20 ADD SWAP1 PUSH1 0x1 SWAP1 SUB SWAP1 DUP2 PUSH2 0x452 JUMPI SWAP1 POP JUMPDEST POP SWAP1 POP PUSH0 JUMPDEST PUSH1 0x1 SLOAD DUP2 LT ISZERO PUSH2 0x645 JUMPI PUSH0 DUP1 PUSH0 DUP4 DUP2 MSTORE PUSH1 0x20 ADD SWAP1 DUP2 MSTORE PUSH1 0x20 ADD PUSH0 KECCAK256 PUSH1 0x40 MLOAD DUP1 PUSH1 0x80 ADD PUSH1 0x40 MSTORE SWAP1 DUP2 PUSH0 DUP3 ADD DUP1 SLOAD PUSH2 0x4A7 SWAP1 PUSH2 0xF49 JUMP JUMPDEST DUP1 PUSH1 0x1F ADD PUSH1 0x20 DUP1 SWAP2 DIV MUL PUSH1 0x20 ADD PUSH1 0x40 MLOAD SWAP1 DUP2 ADD PUSH1 0x40 MSTORE DUP1 SWAP3 SWAP2 SWAP1 DUP2 DUP2 MSTORE PUSH1 0x20 ADD DUP3 DUP1 SLOAD PUSH2 0x4D3 SWAP1 PUSH2 0xF49 JUMP JUMPDEST DUP1 ISZERO PUSH2 0x51E JUMPI DUP1 PUSH1 0x1F LT PUSH2 0x4F5 JUMPI PUSH2 0x100 DUP1 DUP4 SLOAD DIV MUL DUP4 MSTORE SWAP2 PUSH1 0x20 ADD SWAP2 PUSH2 0x51E JUMP JUMPDEST DUP3 ADD SWAP2 SWAP1 PUSH0 MSTORE PUSH1 0x20 PUSH0 KECCAK256 SWAP1 JUMPDEST DUP2 SLOAD DUP2 MSTORE SWAP1 PUSH1 0x1 ADD SWAP1 PUSH1 0x20 ADD DUP1 DUP4 GT PUSH2 0x501 JUMPI DUP3 SWAP1 SUB PUSH1 0x1F AND DUP3 ADD SWAP2 JUMPDEST POP POP POP POP POP DUP2 MSTORE PUSH1 0x20 ADD PUSH1 0x1 DUP3 ADD DUP1 SLOAD PUSH2 0x537 SWAP1 PUSH2 0xF49 JUMP JUMPDEST DUP1 PUSH1 0x1F ADD PUSH1 0x20 DUP1 SWAP2 DIV MUL PUSH1 0x20 ADD PUSH1 0x40 MLOAD SWAP1 DUP2 ADD PUSH1 0x40 MSTORE DUP1 SWAP3 SWAP2 SWAP1 DUP2 DUP2 MSTORE PUSH1 0x20 ADD DUP3 DUP1 SLOAD PUSH2 0x563 SWAP1 PUSH2 0xF49 JUMP JUMPDEST DUP1 ISZERO PUSH2 0x5AE JUMPI DUP1 PUSH1 0x1F LT PUSH2 0x585 JUMPI PUSH2 0x100 DUP1 DUP4 SLOAD DIV MUL DUP4 MSTORE SWAP2 PUSH1 0x20 ADD SWAP2 PUSH2 0x5AE JUMP JUMPDEST DUP3 ADD SWAP2 SWAP1 PUSH0 MSTORE PUSH1 0x20 PUSH0 KECCAK256 SWAP1 JUMPDEST DUP2 SLOAD DUP2 MSTORE SWAP1 PUSH1 0x1 ADD SWAP1 PUSH1 0x20 ADD DUP1 DUP4 GT PUSH2 0x591 JUMPI DUP3 SWAP1 SUB PUSH1 0x1F AND DUP3 ADD SWAP2 JUMPDEST POP POP POP POP POP DUP2 MSTORE PUSH1 0x20 ADD PUSH1 0x2 DUP3 ADD PUSH0 SWAP1 SLOAD SWAP1 PUSH2 0x100 EXP SWAP1 DIV PUSH20 0xFFFFFFFFFFFFFFFFFFFFFFFFFFFFFFFFFFFFFFFF AND PUSH20 0xFFFFFFFFFFFFFFFFFFFFFFFFFFFFFFFFFFFFFFFF AND PUSH20 0xFFFFFFFFFFFFFFFFFFFFFFFFFFFFFFFFFFFFFFFF AND DUP2 MSTORE PUSH1 0x20 ADD PUSH1 0x3 DUP3 ADD SLOAD DUP2 MSTORE POP POP SWAP1 POP DUP1 DUP4 DUP4 DUP2 MLOAD DUP2 LT PUSH2 0x62C JUMPI PUSH2 0x62B PUSH2 0xF79 JUMP JUMPDEST JUMPDEST PUSH1 0x20 MUL PUSH1 0x20 ADD ADD DUP2 SWAP1 MSTORE POP POP DUP1 DUP1 PUSH1 0x1 ADD SWAP2 POP POP PUSH2 0x472 JUMP JUMPDEST POP DUP1 SWAP2 POP POP SWAP1 JUMP JUMPDEST PUSH0 PUSH1 0x20 MSTORE DUP1 PUSH0 MSTORE PUSH1 0x40 PUSH0 KECCAK256 PUSH0 SWAP2 POP SWAP1 POP DUP1 PUSH0 ADD DUP1 SLOAD PUSH2 0x66B SWAP1 PUSH2 0xF49 JUMP JUMPDEST DUP1 PUSH1 0x1F ADD PUSH1 0x20 DUP1 SWAP2 DIV MUL PUSH1 0x20 ADD PUSH1 0x40 MLOAD SWAP1 DUP2 ADD PUSH1 0x40 MSTORE DUP1 SWAP3 SWAP2 SWAP1 DUP2 DUP2 MSTORE PUSH1 0x20 ADD DUP3 DUP1 SLOAD PUSH2 0x697 SWAP1 PUSH2 0xF49 JUMP JUMPDEST DUP1 ISZERO PUSH2 0x6E2 JUMPI DUP1 PUSH1 0x1F LT PUSH2 0x6B9 JUMPI PUSH2 0x100 DUP1 DUP4 SLOAD DIV MUL DUP4 MSTORE SWAP2 PUSH1 0x20 ADD SWAP2 PUSH2 0x6E2 JUMP JUMPDEST DUP3 ADD SWAP2 SWAP1 PUSH0 MSTORE PUSH1 0x20 PUSH0 KECCAK256 SWAP1 JUMPDEST DUP2 SLOAD DUP2 MSTORE SWAP1 PUSH1 0x1 ADD SWAP1 PUSH1 0x20 ADD DUP1 DUP4 GT PUSH2 0x6C5 JUMPI DUP3 SWAP1 SUB PUSH1 0x1F AND DUP3 ADD SWAP2 JUMPDEST POP POP POP POP POP SWAP1 DUP1 PUSH1 0x1 ADD DUP1 SLOAD PUSH2 0x6F7 SWAP1 PUSH2 0xF49 JUMP JUMPDEST DUP1 PUSH1 0x1F ADD PUSH1 0x20 DUP1 SWAP2 DIV MUL PUSH1 0x20 ADD PUSH1 0x40 MLOAD SWAP1 DUP2 ADD PUSH1 0x40 MSTORE DUP1 SWAP3 SWAP2 SWAP1 DUP2 DUP2 MSTORE PUSH1 0x20 ADD DUP3 DUP1 SLOAD PUSH2 0x723 SWAP1 PUSH2 0xF49 JUMP JUMPDEST DUP1 ISZERO PUSH2 0x76E JUMPI DUP1 PUSH1 0x1F LT PUSH2 0x745 JUMPI PUSH2 0x100 DUP1 DUP4 SLOAD DIV MUL DUP4 MSTORE SWAP2 PUSH1 0x20 ADD SWAP2 PUSH2 0x76E JUMP JUMPDEST DUP3 ADD SWAP2 SWAP1 PUSH0 MSTORE PUSH1 0x20 PUSH0 KECCAK256 SWAP1 JUMPDEST DUP2 SLOAD DUP2 MSTORE SWAP1 PUSH1 0x1 ADD SWAP1 PUSH1 0x20 ADD DUP1 DUP4 GT PUSH2 0x751 JUMPI DUP3 SWAP1 SUB PUSH1 0x1F AND DUP3 ADD SWAP2 JUMPDEST POP POP POP POP POP SWAP1 DUP1 PUSH1 0x2 ADD PUSH0 SWAP1 SLOAD SWAP1 PUSH2 0x100 EXP SWAP1 DIV PUSH20 0xFFFFFFFFFFFFFFFFFFFFFFFFFFFFFFFFFFFFFFFF AND SWAP1 DUP1 PUSH1 0x3 ADD SLOAD SWAP1 POP DUP5 JUMP JUMPDEST PUSH1 0x1 PUSH0 DUP2 SLOAD DUP1 SWAP3 SWAP2 SWAP1 PUSH2 0x7B5 SWAP1 PUSH2 0xFD3 JUMP JUMPDEST SWAP2 SWAP1 POP SSTORE POP PUSH1 0x40 MLOAD DUP1 PUSH1 0x80 ADD PUSH1 0x40 MSTORE DUP1 DUP4 DUP2 MSTORE PUSH1 0x20 ADD DUP3 DUP2 MSTORE PUSH1 0x20 ADD CALLER PUSH20 0xFFFFFFFFFFFFFFFFFFFFFFFFFFFFFFFFFFFFFFFF AND DUP2 MSTORE PUSH1 0x20 ADD PUSH0 DUP2 MSTORE POP PUSH0 DUP1 PUSH1 0x1 SLOAD DUP2 MSTORE PUSH1 0x20 ADD SWAP1 DUP2 MSTORE PUSH1 0x20 ADD PUSH0 KECCAK256 PUSH0 DUP3 ADD MLOAD DUP2 PUSH0 ADD SWAP1 DUP2 PUSH2 0x816 SWAP2 SWAP1 PUSH2 0x11B7 JUMP JUMPDEST POP PUSH1 0x20 DUP3 ADD MLOAD DUP2 PUSH1 0x1 ADD SWAP1 DUP2 PUSH2 0x82C SWAP2 SWAP1 PUSH2 0x11B7 JUMP JUMPDEST POP PUSH1 0x40 DUP3 ADD MLOAD DUP2 PUSH1 0x2 ADD PUSH0 PUSH2 0x100 EXP DUP2 SLOAD DUP2 PUSH20 0xFFFFFFFFFFFFFFFFFFFFFFFFFFFFFFFFFFFFFFFF MUL NOT AND SWAP1 DUP4 PUSH20 0xFFFFFFFFFFFFFFFFFFFFFFFFFFFFFFFFFFFFFFFF AND MUL OR SWAP1 SSTORE POP PUSH1 0x60 DUP3 ADD MLOAD DUP2 PUSH1 0x3 ADD SSTORE SWAP1 POP POP POP POP JUMP JUMPDEST PUSH1 0x40 MLOAD DUP1 PUSH1 0x80 ADD PUSH1 0x40 MSTORE DUP1 PUSH1 0x60 DUP2 MSTORE PUSH1 0x20 ADD PUSH1 0x60 DUP2 MSTORE PUSH1 0x20 ADD PUSH0 PUSH20 0xFFFFFFFFFFFFFFFFFFFFFFFFFFFFFFFFFFFFFFFF AND DUP2 MSTORE PUSH1 0x20 ADD PUSH0 DUP2 MSTORE POP SWAP1 JUMP JUMPDEST PUSH0 PUSH1 0x40 MLOAD SWAP1 POP SWAP1 JUMP JUMPDEST PUSH0 DUP1 REVERT JUMPDEST PUSH0 DUP1 REVERT JUMPDEST PUSH0 DUP2 SWAP1 POP SWAP2 SWAP1 POP JUMP JUMPDEST PUSH2 0x8E3 DUP2 PUSH2 0x8D1 JUMP JUMPDEST DUP2 EQ PUSH2 0x8ED JUMPI PUSH0 DUP1 REVERT JUMPDEST POP JUMP JUMPDEST PUSH0 DUP2 CALLDATALOAD SWAP1 POP PUSH2 0x8FE DUP2 PUSH2 0x8DA JUMP JUMPDEST SWAP3 SWAP2 POP POP JUMP JUMPDEST PUSH0 DUP1 PUSH1 0x40 DUP4 DUP6 SUB SLT ISZERO PUSH2 0x91A JUMPI PUSH2 0x919 PUSH2 0x8C9 JUMP JUMPDEST JUMPDEST PUSH0 PUSH2 0x927 DUP6 DUP3 DUP7 ADD PUSH2 0x8F0 JUMP JUMPDEST SWAP3 POP POP PUSH1 0x20 PUSH2 0x938 DUP6 DUP3 DUP7 ADD PUSH2 0x8F0 JUMP JUMPDEST SWAP2 POP POP SWAP3 POP SWAP3 SWAP1 POP JUMP JUMPDEST PUSH0 PUSH1 0x20 DUP3 DUP5 SUB SLT ISZERO PUSH2 0x957 JUMPI PUSH2 0x956 PUSH2 0x8C9 JUMP JUMPDEST JUMPDEST PUSH0 PUSH2 0x964 DUP5 DUP3 DUP6 ADD PUSH2 0x8F0 JUMP JUMPDEST SWAP2 POP POP SWAP3 SWAP2 POP POP JUMP JUMPDEST PUSH0 PUSH20 0xFFFFFFFFFFFFFFFFFFFFFFFFFFFFFFFFFFFFFFFF DUP3 AND SWAP1 POP SWAP2 SWAP1 POP JUMP JUMPDEST PUSH0 PUSH2 0x996 DUP3 PUSH2 0x96D JUMP JUMPDEST SWAP1 POP SWAP2 SWAP1 POP JUMP JUMPDEST PUSH2 0x9A6 DUP2 PUSH2 0x98C JUMP JUMPDEST DUP3 MSTORE POP POP JUMP JUMPDEST PUSH2 0x9B5 DUP2 PUSH2 0x8D1 JUMP JUMPDEST DUP3 MSTORE POP POP JUMP JUMPDEST PUSH0 PUSH1 0x40 DUP3 ADD SWAP1 POP PUSH2 0x9CE PUSH0 DUP4 ADD DUP6 PUSH2 0x99D JUMP JUMPDEST PUSH2 0x9DB PUSH1 0x20 DUP4 ADD DUP5 PUSH2 0x9AC JUMP JUMPDEST SWAP4 SWAP3 POP POP POP JUMP JUMPDEST PUSH0 PUSH1 0x20 DUP3 ADD SWAP1 POP PUSH2 0x9F5 PUSH0 DUP4 ADD DUP5 PUSH2 0x9AC JUMP JUMPDEST SWAP3 SWAP2 POP POP JUMP JUMPDEST PUSH0 DUP2 MLOAD SWAP1 POP SWAP2 SWAP1 POP JUMP JUMPDEST PUSH0 DUP3 DUP3 MSTORE PUSH1 0x20 DUP3 ADD SWAP1 POP SWAP3 SWAP2 POP POP JUMP JUMPDEST PUSH0 DUP2 SWAP1 POP PUSH1 0x20 DUP3 ADD SWAP1 POP SWAP2 SWAP1 POP JUMP JUMPDEST PUSH0 DUP2 MLOAD SWAP1 POP SWAP2 SWAP1 POP JUMP JUMPDEST PUSH0 DUP3 DUP3 MSTORE PUSH1 0x20 DUP3 ADD SWAP1 POP SWAP3 SWAP2 POP POP JUMP JUMPDEST DUP3 DUP2 DUP4 MCOPY PUSH0 DUP4 DUP4 ADD MSTORE POP POP POP JUMP JUMPDEST PUSH0 PUSH1 0x1F NOT PUSH1 0x1F DUP4 ADD AND SWAP1 POP SWAP2 SWAP1 POP JUMP JUMPDEST PUSH0 PUSH2 0xA66 DUP3 PUSH2 0xA24 JUMP JUMPDEST PUSH2 0xA70 DUP2 DUP6 PUSH2 0xA2E JUMP JUMPDEST SWAP4 POP PUSH2 0xA80 DUP2 DUP6 PUSH1 0x20 DUP7 ADD PUSH2 0xA3E JUMP JUMPDEST PUSH2 0xA89 DUP2 PUSH2 0xA4C JUMP JUMPDEST DUP5 ADD SWAP2 POP POP SWAP3 SWAP2 POP POP JUMP JUMPDEST PUSH0 PUSH2 0xA9E DUP3 PUSH2 0x96D JUMP JUMPDEST SWAP1 POP SWAP2 SWAP1 POP JUMP JUMPDEST PUSH2 0xAAE DUP2 PUSH2 0xA94 JUMP JUMPDEST DUP3 MSTORE POP POP JUMP JUMPDEST PUSH2 0xABD DUP2 PUSH2 0x8D1 JUMP JUMPDEST DUP3 MSTORE POP POP JUMP JUMPDEST PUSH0 PUSH1 0x80 DUP4 ADD PUSH0 DUP4 ADD MLOAD DUP5 DUP3 SUB PUSH0 DUP7 ADD MSTORE PUSH2 0xADD DUP3 DUP3 PUSH2 0xA5C JUMP JUMPDEST SWAP2 POP POP PUSH1 0x20 DUP4 ADD MLOAD DUP5 DUP3 SUB PUSH1 0x20 DUP7 ADD MSTORE PUSH2 0xAF7 DUP3 DUP3 PUSH2 0xA5C JUMP JUMPDEST SWAP2 POP POP PUSH1 0x40 DUP4 ADD MLOAD PUSH2 0xB0C PUSH1 0x40 DUP7 ADD DUP3 PUSH2 0xAA5 JUMP JUMPDEST POP PUSH1 0x60 DUP4 ADD MLOAD PUSH2 0xB1F PUSH1 0x60 DUP7 ADD DUP3 PUSH2 0xAB4 JUMP JUMPDEST POP DUP1 SWAP2 POP POP SWAP3 SWAP2 POP POP JUMP JUMPDEST PUSH0 PUSH2 0xB35 DUP4 DUP4 PUSH2 0xAC3 JUMP JUMPDEST SWAP1 POP SWAP3 SWAP2 POP POP JUMP JUMPDEST PUSH0 PUSH1 0x20 DUP3 ADD SWAP1 POP SWAP2 SWAP1 POP JUMP JUMPDEST PUSH0 PUSH2 0xB53 DUP3 PUSH2 0x9FB JUMP JUMPDEST PUSH2 0xB5D DUP2 DUP6 PUSH2 0xA05 JUMP JUMPDEST SWAP4 POP DUP4 PUSH1 0x20 DUP3 MUL DUP6 ADD PUSH2 0xB6F DUP6 PUSH2 0xA15 JUMP JUMPDEST DUP1 PUSH0 JUMPDEST DUP6 DUP2 LT ISZERO PUSH2 0xBAA JUMPI DUP5 DUP5 SUB DUP10 MSTORE DUP2 MLOAD PUSH2 0xB8B DUP6 DUP3 PUSH2 0xB2A JUMP JUMPDEST SWAP5 POP PUSH2 0xB96 DUP4 PUSH2 0xB3D JUMP JUMPDEST SWAP3 POP PUSH1 0x20 DUP11 ADD SWAP10 POP POP PUSH1 0x1 DUP2 ADD SWAP1 POP PUSH2 0xB72 JUMP JUMPDEST POP DUP3 SWAP8 POP DUP8 SWAP6 POP POP POP POP POP POP SWAP3 SWAP2 POP POP JUMP JUMPDEST PUSH0 PUSH1 0x20 DUP3 ADD SWAP1 POP DUP2 DUP2 SUB PUSH0 DUP4 ADD MSTORE PUSH2 0xBD4 DUP2 DUP5 PUSH2 0xB49 JUMP JUMPDEST SWAP1 POP SWAP3 SWAP2 POP POP JUMP JUMPDEST PUSH0 DUP3 DUP3 MSTORE PUSH1 0x20 DUP3 ADD SWAP1 POP SWAP3 SWAP2 POP POP JUMP JUMPDEST PUSH0 PUSH2 0xBF6 DUP3 PUSH2 0xA24 JUMP JUMPDEST PUSH2 0xC00 DUP2 DUP6 PUSH2 0xBDC JUMP JUMPDEST SWAP4 POP PUSH2 0xC10 DUP2 DUP6 PUSH1 0x20 DUP7 ADD PUSH2 0xA3E JUMP JUMPDEST PUSH2 0xC19 DUP2 PUSH2 0xA4C JUMP JUMPDEST DUP5 ADD SWAP2 POP POP SWAP3 SWAP2 POP POP JUMP JUMPDEST PUSH2 0xC2D DUP2 PUSH2 0xA94 JUMP JUMPDEST DUP3 MSTORE POP POP JUMP JUMPDEST PUSH0 PUSH1 0x80 DUP3 ADD SWAP1 POP DUP2 DUP2 SUB PUSH0 DUP4 ADD MSTORE PUSH2 0xC4B DUP2 DUP8 PUSH2 0xBEC JUMP JUMPDEST SWAP1 POP DUP2 DUP2 SUB PUSH1 0x20 DUP4 ADD MSTORE PUSH2 0xC5F DUP2 DUP7 PUSH2 0xBEC JUMP JUMPDEST SWAP1 POP PUSH2 0xC6E PUSH1 0x40 DUP4 ADD DUP6 PUSH2 0xC24 JUMP JUMPDEST PUSH2 0xC7B PUSH1 0x60 DUP4 ADD DUP5 PUSH2 0x9AC JUMP JUMPDEST SWAP6 SWAP5 POP POP POP POP POP JUMP JUMPDEST PUSH0 DUP1 REVERT JUMPDEST PUSH0 DUP1 REVERT JUMPDEST PUSH32 0x4E487B7100000000000000000000000000000000000000000000000000000000 PUSH0 MSTORE PUSH1 0x41 PUSH1 0x4 MSTORE PUSH1 0x24 PUSH0 REVERT JUMPDEST PUSH2 0xCC2 DUP3 PUSH2 0xA4C JUMP JUMPDEST DUP2 ADD DUP2 DUP2 LT PUSH8 0xFFFFFFFFFFFFFFFF DUP3 GT OR ISZERO PUSH2 0xCE1 JUMPI PUSH2 0xCE0 PUSH2 0xC8C JUMP JUMPDEST JUMPDEST DUP1 PUSH1 0x40 MSTORE POP POP POP JUMP JUMPDEST PUSH0 PUSH2 0xCF3 PUSH2 0x8C0 JUMP JUMPDEST SWAP1 POP PUSH2 0xCFF DUP3 DUP3 PUSH2 0xCB9 JUMP JUMPDEST SWAP2 SWAP1 POP JUMP JUMPDEST PUSH0 PUSH8 0xFFFFFFFFFFFFFFFF DUP3 GT ISZERO PUSH2 0xD1E JUMPI PUSH2 0xD1D PUSH2 0xC8C JUMP JUMPDEST JUMPDEST PUSH2 0xD27 DUP3 PUSH2 0xA4C JUMP JUMPDEST SWAP1 POP PUSH1 0x20 DUP2 ADD SWAP1 POP SWAP2 SWAP1 POP JUMP JUMPDEST DUP3 DUP2 DUP4 CALLDATACOPY PUSH0 DUP4 DUP4 ADD MSTORE POP POP POP JUMP JUMPDEST PUSH0 PUSH2 0xD54 PUSH2 0xD4F DUP5 PUSH2 0xD04 JUMP JUMPDEST PUSH2 0xCEA JUMP JUMPDEST SWAP1 POP DUP3 DUP2 MSTORE PUSH1 0x20 DUP2 ADD DUP5 DUP5 DUP5 ADD GT ISZERO PUSH2 0xD70 JUMPI PUSH2 0xD6F PUSH2 0xC88 JUMP JUMPDEST JUMPDEST PUSH2 0xD7B DUP5 DUP3 DUP6 PUSH2 0xD34 JUMP JUMPDEST POP SWAP4 SWAP3 POP POP POP JUMP JUMPDEST PUSH0 DUP3 PUSH1 0x1F DUP4 ADD SLT PUSH2 0xD97 JUMPI PUSH2 0xD96 PUSH2 0xC84 JUMP JUMPDEST JUMPDEST DUP2 CALLDATALOAD PUSH2 0xDA7 DUP5 DUP3 PUSH1 0x20 DUP7 ADD PUSH2 0xD42 JUMP JUMPDEST SWAP2 POP POP SWAP3 SWAP2 POP POP JUMP JUMPDEST PUSH0 DUP1 PUSH1 0x40 DUP4 DUP6 SUB SLT ISZERO PUSH2 0xDC6 JUMPI PUSH2 0xDC5 PUSH2 0x8C9 JUMP JUMPDEST JUMPDEST PUSH0 DUP4 ADD CALLDATALOAD PUSH8 0xFFFFFFFFFFFFFFFF DUP2 GT ISZERO PUSH2 0xDE3 JUMPI PUSH2 0xDE2 PUSH2 0x8CD JUMP JUMPDEST JUMPDEST PUSH2 0xDEF DUP6 DUP3 DUP7 ADD PUSH2 0xD83 JUMP JUMPDEST SWAP3 POP POP PUSH1 0x20 DUP4 ADD CALLDATALOAD PUSH8 0xFFFFFFFFFFFFFFFF DUP2 GT ISZERO PUSH2 0xE10 JUMPI PUSH2 0xE0F PUSH2 0x8CD JUMP JUMPDEST JUMPDEST PUSH2 0xE1C DUP6 DUP3 DUP7 ADD PUSH2 0xD83 JUMP JUMPDEST SWAP2 POP POP SWAP3 POP SWAP3 SWAP1 POP JUMP JUMPDEST PUSH32 0x496E76616C6964206974656D2049440000000000000000000000000000000000 PUSH0 DUP3 ADD MSTORE POP JUMP JUMPDEST PUSH0 PUSH2 0xE5A PUSH1 0xF DUP4 PUSH2 0xBDC JUMP JUMPDEST SWAP2 POP PUSH2 0xE65 DUP3 PUSH2 0xE26 JUMP JUMPDEST PUSH1 0x20 DUP3 ADD SWAP1 POP SWAP2 SWAP1 POP JUMP JUMPDEST PUSH0 PUSH1 0x20 DUP3 ADD SWAP1 POP DUP2 DUP2 SUB PUSH0 DUP4 ADD MSTORE PUSH2 0xE87 DUP2 PUSH2 0xE4E JUMP JUMPDEST SWAP1 POP SWAP2 SWAP1 POP JUMP JUMPDEST PUSH32 0x42696420616D6F756E74206D75737420626520686967686572207468616E2063 PUSH0 DUP3 ADD MSTORE PUSH32 0x757272656E742068696768657374206269640000000000000000000000000000 PUSH1 0x20 DUP3 ADD MSTORE POP JUMP JUMPDEST PUSH0 PUSH2 0xEE8 PUSH1 0x32 DUP4 PUSH2 0xBDC JUMP JUMPDEST SWAP2 POP PUSH2 0xEF3 DUP3 PUSH2 0xE8E JUMP JUMPDEST PUSH1 0x40 DUP3 ADD SWAP1 POP SWAP2 SWAP1 POP JUMP JUMPDEST PUSH0 PUSH1 0x20 DUP3 ADD SWAP1 POP DUP2 DUP2 SUB PUSH0 DUP4 ADD MSTORE PUSH2 0xF15 DUP2 PUSH2 0xEDC JUMP JUMPDEST SWAP1 POP SWAP2 SWAP1 POP JUMP JUMPDEST PUSH32 0x4E487B7100000000000000000000000000000000000000000000000000000000 PUSH0 MSTORE PUSH1 0x22 PUSH1 0x4 MSTORE PUSH1 0x24 PUSH0 REVERT JUMPDEST PUSH0 PUSH1 0x2 DUP3 DIV SWAP1 POP PUSH1 0x1 DUP3 AND DUP1 PUSH2 0xF60 JUMPI PUSH1 0x7F DUP3 AND SWAP2 POP JUMPDEST PUSH1 0x20 DUP3 LT DUP2 SUB PUSH2 0xF73 JUMPI PUSH2 0xF72 PUSH2 0xF1C JUMP JUMPDEST JUMPDEST POP SWAP2 SWAP1 POP JUMP JUMPDEST PUSH32 0x4E487B7100000000000000000000000000000000000000000000000000000000 PUSH0 MSTORE PUSH1 0x32 PUSH1 0x4 MSTORE PUSH1 0x24 PUSH0 REVERT JUMPDEST PUSH32 0x4E487B7100000000000000000000000000000000000000000000000000000000 PUSH0 MSTORE PUSH1 0x11 PUSH1 0x4 MSTORE PUSH1 0x24 PUSH0 REVERT JUMPDEST PUSH0 PUSH2 0xFDD DUP3 PUSH2 0x8D1 JUMP JUMPDEST SWAP2 POP PUSH32 0xFFFFFFFFFFFFFFFFFFFFFFFFFFFFFFFFFFFFFFFFFFFFFFFFFFFFFFFFFFFFFFFF DUP3 SUB PUSH2 0x100F JUMPI PUSH2 0x100E PUSH2 0xFA6 JUMP JUMPDEST JUMPDEST PUSH1 0x1 DUP3 ADD SWAP1 POP SWAP2 SWAP1 POP JUMP JUMPDEST PUSH0 DUP2 SWAP1 POP DUP2 PUSH0 MSTORE PUSH1 0x20 PUSH0 KECCAK256 SWAP1 POP SWAP2 SWAP1 POP JUMP JUMPDEST PUSH0 PUSH1 0x20 PUSH1 0x1F DUP4 ADD DIV SWAP1 POP SWAP2 SWAP1 POP JUMP JUMPDEST PUSH0 DUP3 DUP3 SHL SWAP1 POP SWAP3 SWAP2 POP POP JUMP JUMPDEST PUSH0 PUSH1 0x8 DUP4 MUL PUSH2 0x1076 PUSH32 0xFFFFFFFFFFFFFFFFFFFFFFFFFFFFFFFFFFFFFFFFFFFFFFFFFFFFFFFFFFFFFFFF DUP3 PUSH2 0x103B JUMP JUMPDEST PUSH2 0x1080 DUP7 DUP4 PUSH2 0x103B JUMP JUMPDEST SWAP6 POP DUP1 NOT DUP5 AND SWAP4 POP DUP1 DUP7 AND DUP5 OR SWAP3 POP POP POP SWAP4 SWAP3 POP POP POP JUMP JUMPDEST PUSH0 DUP2 SWAP1 POP SWAP2 SWAP1 POP JUMP JUMPDEST PUSH0 PUSH2 0x10BB PUSH2 0x10B6 PUSH2 0x10B1 DUP5 PUSH2 0x8D1 JUMP JUMPDEST PUSH2 0x1098 JUMP JUMPDEST PUSH2 0x8D1 JUMP JUMPDEST SWAP1 POP SWAP2 SWAP1 POP JUMP JUMPDEST PUSH0 DUP2 SWAP1 POP SWAP2 SWAP1 POP JUMP JUMPDEST PUSH2 0x10D4 DUP4 PUSH2 0x10A1 JUMP JUMPDEST PUSH2 0x10E8 PUSH2 0x10E0 DUP3 PUSH2 0x10C2 JUMP JUMPDEST DUP5 DUP5 SLOAD PUSH2 0x1047 JUMP JUMPDEST DUP3 SSTORE POP POP POP POP JUMP JUMPDEST PUSH0 SWAP1 JUMP JUMPDEST PUSH2 0x10FC PUSH2 0x10F0 JUMP JUMPDEST PUSH2 0x1107 DUP2 DUP5 DUP5 PUSH2 0x10CB JUMP JUMPDEST POP POP POP JUMP JUMPDEST JUMPDEST DUP2 DUP2 LT ISZERO PUSH2 0x112A JUMPI PUSH2 0x111F PUSH0 DUP3 PUSH2 0x10F4 JUMP JUMPDEST PUSH1 0x1 DUP2 ADD SWAP1 POP PUSH2 0x110D JUMP JUMPDEST POP POP JUMP JUMPDEST PUSH1 0x1F DUP3 GT ISZERO PUSH2 0x116F JUMPI PUSH2 0x1140 DUP2 PUSH2 0x101A JUMP JUMPDEST PUSH2 0x1149 DUP5 PUSH2 0x102C JUMP JUMPDEST DUP2 ADD PUSH1 0x20 DUP6 LT ISZERO PUSH2 0x1158 JUMPI DUP2 SWAP1 POP JUMPDEST PUSH2 0x116C PUSH2 0x1164 DUP6 PUSH2 0x102C JUMP JUMPDEST DUP4 ADD DUP3 PUSH2 0x110C JUMP JUMPDEST POP POP JUMPDEST POP POP POP JUMP JUMPDEST PUSH0 DUP3 DUP3 SHR SWAP1 POP SWAP3 SWAP2 POP POP JUMP JUMPDEST PUSH0 PUSH2 0x118F PUSH0 NOT DUP5 PUSH1 0x8 MUL PUSH2 0x1174 JUMP JUMPDEST NOT DUP1 DUP4 AND SWAP2 POP POP SWAP3 SWAP2 POP POP JUMP JUMPDEST PUSH0 PUSH2 0x11A7 DUP4 DUP4 PUSH2 0x1180 JUMP JUMPDEST SWAP2 POP DUP3 PUSH1 0x2 MUL DUP3 OR SWAP1 POP SWAP3 SWAP2 POP POP JUMP JUMPDEST PUSH2 0x11C0 DUP3 PUSH2 0xA24 JUMP JUMPDEST PUSH8 0xFFFFFFFFFFFFFFFF DUP2 GT ISZERO PUSH2 0x11D9 JUMPI PUSH2 0x11D8 PUSH2 0xC8C JUMP JUMPDEST JUMPDEST PUSH2 0x11E3 DUP3 SLOAD PUSH2 0xF49 JUMP JUMPDEST PUSH2 0x11EE DUP3 DUP3 DUP6 PUSH2 0x112E JUMP JUMPDEST PUSH0 PUSH1 0x20 SWAP1 POP PUSH1 0x1F DUP4 GT PUSH1 0x1 DUP2 EQ PUSH2 0x121F JUMPI PUSH0 DUP5 ISZERO PUSH2 0x120D JUMPI DUP3 DUP8 ADD MLOAD SWAP1 POP JUMPDEST PUSH2 0x1217 DUP6 DUP3 PUSH2 0x119C JUMP JUMPDEST DUP7 SSTORE POP PUSH2 0x127E JUMP JUMPDEST PUSH1 0x1F NOT DUP5 AND PUSH2 0x122D DUP7 PUSH2 0x101A JUMP JUMPDEST PUSH0 JUMPDEST DUP3 DUP2 LT ISZERO PUSH2 0x1254 JUMPI DUP5 DUP10 ADD MLOAD DUP3 SSTORE PUSH1 0x1 DUP3 ADD SWAP2 POP PUSH1 0x20 DUP6 ADD SWAP5 POP PUSH1 0x20 DUP2 ADD SWAP1 POP PUSH2 0x122F JUMP JUMPDEST DUP7 DUP4 LT ISZERO PUSH2 0x1271 JUMPI DUP5 DUP10 ADD MLOAD PUSH2 0x126D PUSH1 0x1F DUP10 AND DUP3 PUSH2 0x1180 JUMP JUMPDEST DUP4 SSTORE POP JUMPDEST PUSH1 0x1 PUSH1 0x2 DUP9 MUL ADD DUP9 SSTORE POP POP POP JUMPDEST POP POP POP POP POP POP JUMP INVALID LOG2 PUSH5 0x6970667358 0x22 SLT KECCAK256 PUSH31 0xBA5F53A8AA2A38D3324C544CF0FAD4FC5632148299D12E59F94E0F623A5A40 PUSH5 0x736F6C6343 STOP ADDMOD BYTE STOP CALLER "
				},
				"gasEstimates": {
					"creation": {
						"codeDepositCost": "959200",
						"executionCost": "992",
						"totalCost": "960192"
					},
					"external": {
						"createItem(string,string)": "infinite",
						"getAllInfo()": "infinite",
						"getWinningBid(uint256)": "infinite",
						"itemCount()": "2447",
						"items(uint256)": "infinite",
						"placeBid(uint256,uint256)": "infinite"
					}
				},
				"methodIdentifiers": {
					"createItem(string,string)": "e03fd74c",
					"getAllInfo()": "b18e15bd",
					"getWinningBid(uint256)": "6891939d",
					"itemCount()": "6bfb0d01",
					"items(uint256)": "bfb231d2",
					"placeBid(uint256,uint256)": "57c90de5"
				}
			},
			"storageLayout": {
				"storage": [
					{
						"astId": 15,
						"contract": "contracts/4_auctions.sol:Auction",
						"label": "items",
						"offset": 0,
						"slot": "0",
						"type": "t_mapping(t_uint256,t_struct(Item)10_storage)"
					},
					{
						"astId": 17,
						"contract": "contracts/4_auctions.sol:Auction",
						"label": "itemCount",
						"offset": 0,
						"slot": "1",
						"type": "t_uint256"
					}
				],
				"types": {
					"t_address_payable": {
						"encoding": "inplace",
						"label": "address payable",
						"numberOfBytes": "20"
					},
					"t_mapping(t_uint256,t_struct(Item)10_storage)": {
						"encoding": "mapping",
						"key": "t_uint256",
						"label": "mapping(uint256 => struct Auction.Item)",
						"numberOfBytes": "32",
						"value": "t_struct(Item)10_storage"
					},
					"t_string_storage": {
						"encoding": "bytes",
						"label": "string",
						"numberOfBytes": "32"
					},
					"t_struct(Item)10_storage": {
						"encoding": "inplace",
						"label": "struct Auction.Item",
						"members": [
							{
								"astId": 3,
								"contract": "contracts/4_auctions.sol:Auction",
								"label": "name",
								"offset": 0,
								"slot": "0",
								"type": "t_string_storage"
							},
							{
								"astId": 5,
								"contract": "contracts/4_auctions.sol:Auction",
								"label": "description",
								"offset": 0,
								"slot": "1",
								"type": "t_string_storage"
							},
							{
								"astId": 7,
								"contract": "contracts/4_auctions.sol:Auction",
								"label": "highestBidder",
								"offset": 0,
								"slot": "2",
								"type": "t_address_payable"
							},
							{
								"astId": 9,
								"contract": "contracts/4_auctions.sol:Auction",
								"label": "highestBid",
								"offset": 0,
								"slot": "3",
								"type": "t_uint256"
							}
						],
						"numberOfBytes": "128"
					},
					"t_uint256": {
						"encoding": "inplace",
						"label": "uint256",
						"numberOfBytes": "32"
					}
				}
			},
			"userdoc": {
				"kind": "user",
				"methods": {},
				"version": 1
			}
		}
	}
}